:020000040800F2
:1000000000000220E9380008A3380008A5380008DD
:10001000A7380008A9380008AB3800080000000025
:10002000000000000000000000000000AD380008E3
:10003000AF38000800000000B1380008D1150008F2
:1000400039390008393900083939000839390008C8
:1000500039390008393900083939000839390008B8
:1000600039390008E5150008393900083939000820
:100070003939000839390008393900083939000898
:100080003939000839390008393900083939000888
:100090003939000839390008393900083939000878
:1000A000393900084D140008393900083939000879
:1000B0003939000839390008393900083939000858
:1000C0003939000839390008393900083939000848
:1000D0003939000839390008B538000839390008BD
:1000E0003939000839390008393900083939000828
:1000F0003939000839390008393900083939000818
:100100003939000839390008393900083939000807
:100110003939000839390008C5380008393900086C
:1001200039390008393900082D1400083939000818
:1001300039390008393900083939000839390008D7
:1001400039390008393900083939000839390008C7
:1001500039390008393900083939000839390008B7
:1001600039390008393900083939000839390008A7
:100170003939000839390008393900080000000011
:08018000393900083939000883
:1001880053B94AB9002908BF00281CBF4FF0FF31F6
:100198004FF0FF3000F00CB8ADF1080C6DE904CE5B
:1001A80003F0F4FBDDF804E0DDE9022304B0704756
:1001B800704700BF10B5054C237833B9044B13B111
:1001C8000448AFF300800123237010BD1400002001
:1001D80000000000503C000808B5034B1BB1034960
:1001E8000348AFF3008008BD00000000180000209D
:1001F800503C0008017042708370704700B583B0AE
:1002080000238DF800308DF801308DF802300B286E
:100218000DD8DFE800F006222930373E454C535A06
:100228006168FF23002211466846FFF7E3FF009B41
:10023800ADF804301B0C8DF8063000209DF8043012
:1002480063F307009DF8053063F30F209DF806302F
:1002580063F3174003B05DF804FBFF237F220021FE
:100268006846FFF7C7FFE2E7FF231A460021684602
:10027800FFF7C0FFDBE77F23FF2200216846FFF777
:10028800B9FFD4E70023FF2219466846FFF7B2FFFB
:10029800CDE70023FF227F216846FFF7ABFFC6E7C3
:1002A8000023FF2211466846FFF7A4FFBFE700239B
:1002B8007F22FF216846FFF79DFFB8E700231A4613
:1002C800FF216846FFF796FFB1E77F230022FF2151
:1002D8006846FFF78FFFAAE7FF2300221946684602
:1002E800FFF788FFA3E7FF2300227F216846FFF777
:1002F80081FF9CE700230370437083700171836062
:10030800C3600361436170478078704700230370BE
:10031800437083700122C2708360C36003614361CC
:10032800704700B587B084460846002301930293BE
:10033800039304930593CCF80010ACF804200192C1
:10034800012202920393049301A901F0D9FE07B098
:100358005DF804FB00687047037C63B10368C268FA
:10036800134403608268934213DD02600023037420
:10037800012343747047437C5BB10368C2689B1ACE
:1003880003604268934204DA026000234374012345
:100398000374704701604160826001220274002288
:1003A8004274C36070470000002900F02C812DE9D9
:1003B800F04F8FB005460C46CB78203B312B00F22E
:1003C8001E81DFE813F032001C011C011C011C0116
:1003D8001C011C011C011C011C011C011C011C012D
:1003E8001C011C011C0134004400650077001C013D
:1003F8007B001C011C011C011C011C011C011C01AF
:100408001C011C011C011C011C011C011C011C01FC
:100418001C011C011C011C011C011C011C011C01EC
:100428001C011C011C01E400E6007748E8E00B7998
:100438004FF0000663F30F264B7963F307060B7A38
:100448000093CB798A79B1B200F0FCF9D8E00B7946
:100458004FF0000663F30F264B7963F30706B7B234
:100468008B7963F30F26CB7963F30706B6B291F85D
:10047800089091F809808C7A07E0009443464A4630
:100488003946284600F0DEF90137B742F5DBB7E018
:1004980091F804804F798E79002407E000963B4656
:1004A80042462146284600F0CDF90134AB68A34204
:1004B800F4DCA5E0097900F03AFAA1E00B794FF0F5
:1004C800000663F30F264B7963F307061FFA86F9D4
:1004D80083684B4557DA06277B1C14F80780BA1C3B
:1004E800E35C63F30F26FB1CA25C62F307061FFAAA
:1004F80086F93A1DE35C63F30F267B1DA25C62F369
:1005080007061FFA86FABA1DE35C63F30F26FB1D84
:10051800A25C62F307061FFA86FB0837E35C63F305
:100528000F26E35D63F30706B6B206AF2024224622
:100538000021384603F0FDF98DF8374000965B46F8
:1005480052464946384600F0F4F9CDF814806C4616
:1005580009AE0FCE0FC43368236097E80E00284613
:1005680000F06DFA4CE07B1CE25DB91C615C009107
:10057800E35C03374146284600F064F908F10108B6
:10058800C845F0DBA8E74FF000080627F8E704277E
:10059800A2E791F804804B794FF0000663F30F2629
:1005A8008B7963F30706B1B2E37963F30F26237AF5
:1005B80063F30706B2B2637A63F30F26A37A63F391
:1005C8000706B3B2E07A60F30F26207B60F30706D4
:1005D800B6B221208DF8370006AF0096384600F0F5
:1005E800DDF9CDF814806C4609AE0FCE0FC4336820
:1005F800236097E80E00284600F021FA00E000206A
:100608000FB0BDE8F08F7047683C000820B10022A9
:1006180042710271016082607047836801338360B0
:10062800027922B90268934201D3012343717047CA
:100638000346407910B11B7903B1002070470023AD
:1006480043718360704700F580539968D984986135
:1006580000229A6001229A71704710B400F5805206
:10066800916911F801CB946800F804C091615DF8B4
:10067800044B7047002302E00022C2540133B3F553
:10068800006FF9DB00F58050002303608360C360CE
:10069800037443748374837128230362704710B50D
:1006A800044600F580531B7C5BB100F5805393F83A
:1006B800253033B900F580530022DA61012283F82E
:1006C800252004F5805393F825302BB104F5805389
:1006D800DA691B6A9A4205DC04F58054E369013340
:1006E800E36110BD04F580530022DA6183F8252008
:1006F8002046FFF7BFFFEFE710B50C4600F5805323
:10070800996842189A619A8810F801E000EB020C87
:100718008CF800E801329A80435C643BDBB2032B1F
:1007280019D800F580531B7CABB900F580524FF007
:10073800010C82F810C09360A2F804C005E0C2184A
:100748004FF0000C82F800C80133B3F5006FF6DBF8
:10075800435C80F8003800F580531A7C12B19B681E
:10076800012B22D022B100F580539B68022B28D0A0
:1007780000F580539B88B3F5006F03D900F58053CB
:100788000021998000F580518B6801338B6012B18C
:10079800CA68934223D0FFF760FF00F5805001221A
:1007A8008169204603F05DF810BD00F580539B7CFD
:1007B800002BD7D110F801C000F5805383F815C07D
:1007C800D0E700F580539B7C002BD1D1415C00F52C
:1007D80080531975998AD96001219974C8E78B7C6F
:1007E800002BD8D0FFF72FFF00F5805300229A7412
:1007F8001A74D2E700F580508079704700F50060E0
:10080800704700F580500023837170474260016093
:1008180083606423C360002380F85031704730B48C
:1008280004686CB185688D420ADB01EB41016254B2
:1008380004684A1CA354036802319DF808205A54DE
:1008480030BC704730B444686CB185688D420ADBAF
:1008580001EB4101625442680A44537043680B44F7
:100868009DF808209A7030BC7047000030B52DED17
:10087800028B87B00546D0ED037AF8EEE77A9FED54
:100888001F7A87EE878A002430E0696804EB440207
:100898008B188A5C07EE902AF8EE677A67EE887AFA
:1008A800FCEEE77ACDED037A5A7807EE902AF8EE57
:1008B800677A67EE887AFCEEE77ACDED047A9B7862
:1008C80007EE903AF8EE677A67EE887AFCEEE77AF8
:1008D800CDED057A9DF8143000939DF810309DF801
:1008E8000C2021462846FFF79AFF0134AB68A34243
:1008F800CBDC07B0BDEC028B30BD00BF0000C842A6
:1009080030B585B00546039100240BE09DF80E3004
:1009180000939DF80D309DF80C2021462846FFF7DE
:1009280091FF0134AB68A342F0DC05B030BDC16073
:1009380070472DE9F04104460F4615461E46BDF89E
:100948001880134642463146FFF724FD6683A4F813
:100958001C80A782E5820123A3772023E377BDE8E3
:10096800F081D0B138B50C46054641B18B7F33B123
:100978000A8B8B8A9A4203D8238B0133238338BD91
:100988000846FFF7E9FC21782846FFF7D0FF2846FC
:10099800FFF76CFF00232383EEE770472DE9F04152
:1009A80004460F4615461E46BDF8188013464246B3
:1009B8003146FFF7EFFC6683A4F81C80A782E58226
:1009C8000123A3772123E377BDE8F08184B010B534
:1009D80082B0044605A880E80E0094F85001092862
:1009E8000AD89DF83330202B0BD0212B18D094F83F
:1009F8005031013384F8503102B0BDE8104004B0E2
:100A0800704740011030BDF830300093BDF82E30EB
:100A1800BDF82A20BDF828102044FFF78AFFE6E732
:100A280040011030BDF830300093BDF82E30BDF8CD
:100A38002A20BDF828102044FFF7B0FFD7E784B07C
:100A480000B583B00DF1140C8CE80E009DF834301D
:100A5800092B05D89DF83320202A06D0212A14D046
:100A680003B05DF804EB04B070475B0103F1100CB0
:100A7800BDF830300093BDF82E30BDF82A20BDF8FF
:100A880028106044FFF755FFEAE75B0103F1100CFB
:100A9800BDF830300093BDF82E30BDF82A20BDF8DF
:100AA80028106044FFF77AFFDAE70000002800F01A
:100AB8004F812DE9F04182B00C46054641B18B7F4C
:100AC80033B10A8B8B8A9A4205D8238B013323834F
:100AD80002B0BDE8F0810846FFF73EFC2046FFF76C
:100AE80039FC064687B29B4BA3FB0723FA1A03EB94
:100AF8005203C3F38F18C3F3871000238DF8043013
:100B08008DF805308DF806300B281BD8DFE810F07B
:100B18000C0024003B0052006A007F009600AD00E4
:100B2800C500DA00F1000801FFF768FB8DF8040042
:100B3800C0F307238DF80530C0F307408DF8060091
:100B48008DF8056001992846FFF7DAFE2846FFF779
:100B58008DFE00232383B8E7FFF750FB8DF80400D0
:100B6800C0F307238DF80530C0F307408DF8060061
:100B78005FFA88F8A8EBC81817FA88F39BB27F3396
:100B88008DF80530DEE7FFF739FB8DF80400C0F378
:100B980007238DF80530C0F307408DF806005FFA8B
:100BA80088F8A8EBC81817FA88F39BB2DB438DF8CE
:100BB8000630C7E7FFF722FB8DF80400C0F30723D0
:100BC8008DF80530C0F307408DF806005FFA88F805
:100BD800A8EBC81817FA88F39BB2C3F17F038DF806
:100BE8000630AFE7FFF70AFB8DF80400C0F30723D0
:100BF8008DF80530C0F307408DF806005FFA88F8D5
:100C0800A8EBC81817FA88F38DF804309AE7FFF7AD
:100C1800F5FA8DF80400C0F307238DF80530C0F30A
:100C280007408DF806005FFA88F8A8EBC81817FA8D
:100C380088F39BB27F338DF8043083E7FFF7DEFA41
:100C48008DF80400C0F307238DF80530C0F3074082
:100C58008DF806005FFA88F8A8EBC81817FA88F329
:100C68009BB2DB438DF805306CE7FFF7C7FA8DF8C8
:100C78000400C0F307238DF80530C0F307408DF852
:100C880006005FFA88F8A8EBC81817FA88F39BB231
:100C9800C3F17F038DF8053054E7FFF7AFFA8DF8FD
:100CA8000400C0F307238DF80530C0F307408DF822
:100CB80006005FFA88F8A8EBC81817FA88F38DF8C9
:100CC80006303FE7FFF79AFA8DF80400C0F30723D0
:100CD8008DF80530C0F307408DF806005FFA88F8F4
:100CE800A8EBC81817FA88F39BB27F338DF8063043
:100CF80028E7FFF783FA8DF80400C0F307238DF87F
:100D08000530C0F307408DF806005FFA88F8A8EBB5
:100D1800C81817FA88F39BB2DB438DF8043011E743
:100D2800FFF76CFA8DF80400C0F307238DF805303F
:100D3800C0F307408DF806005FFA88F8A8EBC818DA
:100D480017FA88F39BB2C3F17F038DF80430F9E6F4
:100D5800704700BF1108040238B50546002406E0B4
:100D68006101103129442846FFF7FBFD013495F84D
:100D78005031A3420EDD05EB441393F82F30202B9E
:100D8800EED0212BF2D16101103129442846FFF71A
:100D98008DFEEBE738BD82B000230193019B013340
:100DA800019302B07047000070B42E4EB45CF55C3D
:100DB8009DF80C30F25C01EB4103E443ED43D24370
:100DC800294901EB031101F1614101F580114E013F
:100DD800830003EB4113E90946F82010A9091964B7
:100DE8006909C3F880102909C3F8C010E908C3F8D5
:100DF8000011A908C3F840116908C3F88011C3F8A5
:100E0800C051E109C3F80012A109C3F840126109F1
:100E1800C3F880122109C3F8C012E108C3F800130F
:100E2800A108C3F840136108C3F88013C3F8C0438E
:100E3800D109C3F800149109C3F840145109C3F843
:100E480080141109C3F8C014D108C3F8001591081B
:100E5800C3F840155108C3F88015C3F8C02570BC05
:100E6800704700BF703C0008D801002070B582B000
:100E780005688468631C83602A5DA61C8660EB5C39
:100E880003348460AD5D4668B44206D0009589B2EB
:100E9800007BFFF789FF02B070BD00248460F5E78E
:100EA8002F4B4FF400529A612E4B9B6BB3F5C06FDA
:100EB80002D010B5002448E000202A4B98632A4A43
:100EC800136823F001031360284B19680B6823F09B
:100ED80001030B60264B19680B6823F001030B60B4
:100EE800244B19680B6823F001030B60224B1B6825
:100EF800D96821F48071D960D96821F40071D9606A
:100F0800D96821F48061D9601C490968D1625062AE
:100F1800012151616FF001011961D96841F00101A6
:100F2800D960136843F001031360154B1A68154B19
:100F38009A610B4B4FF000529A61704701210948A2
:100F480000EB0410FFF792FF0134022CF6D9054A92
:100F5800936B01339363024B4FF000529A6110BDBB
:100F6800000C02403802002000000140F000002080
:100F78009000002030000020900100205001002047
:100F8800000000200008024038B500254F4B83F8C8
:100F980030500CE04D4C04EB05140021A1602046B4
:100FA800FFF764FF01212046FFF760FF0135022D9E
:100FB800F0D9474B1B68474A934245D9583A4FF4F2
:100FC8006061D160444A1068424A904252D9583A06
:100FD8004FF46061D160414A11683E4A91425FD93D
:100FE800583A4FF46014D46030225A6042604A6024
:100FF8003B490A686FF01F0010611A6842F001024D
:101008001A60354B1A68136843F001031360334BB9
:101018001A68136843F0010313600B68DA6842F436
:101028008072DA60DA6842F40072DA60DA6842F4F0
:101038008062DA602B4A1268013A2B494A621A68C0
:1010480042F001021A6038BD284A934205D902F5D8
:1010580052724FF460619160B4E7254A934204D913
:10106800583A4FF46061D160ACE7224A4FF46061AE
:101078009160A7E71D4A904205D902F552724FF4D4
:1010880060619160A7E71A4A904204D9583A4FF430
:101098006061D1609FE7174A4FF4606191609AE7F9
:1010A800124A914205D902F552724FF460149460C5
:1010B8009AE70F4A914204D9583A4FF46014D46021
:1010C80092E70C4A4FF4601494608DE738020020D0
:1010D800F0000020586402409000002030000020FA
:1010E800900100205401002000000140B860024037
:1010F800586002400060024010B582B00E4B9B6BF6
:10110800B3F5C06F01D000240EE000200090034624
:1011180002460146FFF748FE0CE00021064800EBB6
:101128000410FFF7A3FE0134022CF6D9024A936B90
:101138000133936302B010BD3802002070B588B047
:1011480000250195194C236B43F004032363236B9B
:1011580003F004030193019B0F23039301260496D4
:101168000595069503A9124800F0CAFF0295236B5E
:1011780043F008032363236B03F008030293029BE5
:1011880004960595022306934FF400430393A4F5B0
:10119800305403A9204600F0B3FF4FF400530393E3
:1011A80003A9204600F0ACFF08B070BD003802402B
:1011B800000802402DE9F04F83B000250195464B09
:1011C8001A6B42F480021A631B6B03F480030193C9
:1011D800019B424C4FF0400AC4F808A0E560256125
:1011E8004FF4805363614FF4804BC4F818B04FF448
:1011F8008079C4F81C904FF44038C4F820804FF030
:101208004067676065620326A662E5622563344B22
:101218002360204600F09EFD204600F035FD302377
:10122800304A3149204600F0C7FD304CC4F808A0C8
:10123800E5604FF4806323614FF4006363614FF40A
:101248000053A361C4F81C90C4F8208067606562ED
:10125800A662E5622563264B2360204600F07AFDEE
:10126800204600F011FD3023224A2349204600F091
:10127800A3FD224CC4F808A0E56025614FF4805313
:101288006361C4F818B0C4F81C90C4F82080676083
:101298006562A662E5622563194B2360204600F06B
:1012A80059FD184BE363184B2364184BE36420463D
:1012B80000F0EAFC2A4629463A2000F033FC3A209E
:1012C80000F040FC3023074A1149204600F098FD01
:1012D80003B0BDE8F08F00BF00380240F0000020E6
:1012E8008864024018080240040000209000002092
:1012F800286402401A080240D8010020300000206B
:1013080040640240A90E0008011100089F0D000862
:10131800000000202DE9F04182B000240194354BF3
:101328005A6C42F001025A645B6C03F001030193AA
:10133800019B314B1A68130A3049A1FB03131B099F
:101348002F490B602F49A1FB0212D20A2E490A60CD
:1013580003EB83014A002D49A1FB0201CF082C4968
:10136800A1FB0212D6082B4D2B4A2A60EB606C6158
:101378006C602C61AC60284601F066FD224621466F
:10138800192000F0CFFB192000F0DCFB23494FF0B7
:101398006008C1F800808C604F60CC600C61224608
:1013A800284601F0B5FD1E49C1F800808C604E60EA
:1013B800CC600C614C618C610422284601F0A8FDC8
:1013C800284601F0DDFB2146284601F01FFE2B6868
:1013D800196A41F21112114208D1196A40F24442C5
:1013E800114203D11A6822F001021A6002B0BDE866
:1013F800F08100BF0038024010000020598B4F01D7
:1014080054010020B5814E1B50010020398EE3386D
:10141800898888889001002000000140740100201C
:101428005801002010B5054C4FF40043A36104484F
:1014380000F078FD4FF00043A36110BD000C02409E
:101448003000002010B5054C4FF40053A361044848
:1014580001F0D9FB4FF00053A36110BD000C02400E
:10146800900100200A48002343630A4A13600A4B8C
:101478001B68D96821F00101D96008490968D1625F
:10148800012151616FF001021A6180F83010704734
:101498003802002000000140900100205401002083
:1014A80008B5FFF74BFEFFF785FEFFF733FF024B4A
:1014B800012283F8302008BD3802002008B5064B09
:1014C80093F8313003B908BD034B002283F831206B
:1014D800FFF75AFDF7E700BF3802002008B50B4BAD
:1014E80000221A730A4A1A604FF440725A600121A6
:1014F8001977084919615A61022183F82C100649A5
:1015080019625A62FFF7CCFF08BD00BF38020020FD
:1015180074080020740500207402002008B5064BEA
:1015280093F8303003B908BD034B012283F831200A
:10153800FFF7C4FFF7E700BF380200208AB0002297
:10154800059206920792089209920092194B196B1C
:1015580041F010011963196B01F010010091009915
:101568000192196B41F004011963196B01F0040130
:10157800019101990292196B41F080011963196B6D
:1015880001F08001029102990392196B41F0010167
:101598001963196B01F001010391039904921A6B05
:1015A80042F002021A631B6B03F002030493049BCC
:1015B8000AB070470038024008B501460148FFF7F5
:1015C8009BF808BDF00B002008B500F053FA024B59
:1015D80001221A7008BD00BF740B002008B508204E
:1015E80000F08EFE08BD72B6FEE7000008B50A4896
:1015F8000A4B03604FF4E133436000238360C36008
:1016080003610C2242618361C36101F0ABFE00B942
:1016180008BDFFF7E8FF00BFB824002000440040E1
:1016280000B595B03022002108A802F082F9002305
:101638000393049305930693079301931F4A116C30
:1016480041F080511164126C02F080520192019AAB
:1016580002931B4A116841F480411160126802F438
:1016680080420292029A0222089201210B911021D3
:101678000C910E920F9308231093A82311931292A2
:101688000423139308A800F0A3FE98B90F2303932B
:1016980002230493002305934FF4A05306934FF4B9
:1016A80080530793052103A801F0FCF820B915B071
:1016B8005DF804FBFFF797FFFFF795FF003802403E
:1016C8000070004080B588B000F0BAF9FFF7A8FFB5
:1016D800FFF734FFFFF78AFFAB4CAC4D01222146E0
:1016E800284602F0BEF84FF47A730622A849284625
:1016F80001F067FEFFF7F2FEA64F8023A64AA7492E
:101708003846FFF783F8A64E3023A64AA649304646
:10171800FFF77CF8A54D3023A54AA6492846FFF7D0
:1017280075F83221A448FEF771FF1421A348FEF78B
:101738006DFF4FF47A71A248FEF768FF01234B2230
:101748004121A048FEF726FEDFF8A48201230822E3
:1017580041469D48FEF7E5FD0123102241469B487E
:10176800FEF7DFFD00219A48FEF7C4FDA8F5805872
:101778000223402241469748FEF7D3FD02238022E8
:1017880041469548FEF7CDFD2046FEF773FF934C82
:1017980040F2F45300930023052214212046FFF75A
:1017A800FDF8EC4604F10C0EBEE80F00ACE80F00A3
:1017B800DEF80030CCF8003094E80E003846FFF729
:1017C80005F9EC4604F10C0EBEE80F00ACE80F007A
:1017D800DEF80030CCF8003094E80E003046FFF711
:1017E800F5F8EC4604F10C0EBEE80F00ACE80F006B
:1017F800DEF80030CCF8003094E80E002846FFF7F9
:10180800E5F83846FFF732F83046FFF72FF8284654
:10181800FFF72CF813E05C48FEF7ECFF48BB66487E
:10182800FEF706FF00287AD16448FEF701FF00287A
:1018380079D16748FEF768FD002840F08380684B3F
:101848001B78002BE7D05048FEF729FF5A48FEF7CF
:10185800E4FE5A48FEF7E1FE4E48FFF77DFA50488D
:10186800FFF77AFA5148FFF777FA5D4B00221A70B2
:10187800D1E74548FEF7C2FF0378643B032B19D82C
:10188800DFE803F0022B3D453F4C2046FEF7B6FF4C
:1018980001464048FEF788FD2046FEF7AFFF0146A7
:1018A8003F48FEF781FD2046FEF7A8FF01463F4866
:1018B800FEF77AFD3448FEF7A4FF8021494800F07E
:1018C80015FD3448FEF7D2FF3548FEF7CFFF3748FD
:1018D800FEF7CCFFFFF722FEA1E72B48FEF78EFFAD
:1018E80001462C48FEF760FD3F4B8342E2D14FF49E
:1018F8007A7307223C49254801F063FDDAE722485C
:10190800FEF77CFF01462648FEF74EFDD2E71E484B
:10191800FEF774FF01462548FEF746FDCAE726484C
:10192800FEF78DFE80E71B48FEF7A0FF1C48FEF778
:101938009DFF1E48FEF79AFFFFF7F0FD1F48FEF7D0
:101948007EFE76E7294B1B680A2B18DC0133274AF1
:101958001360264B1878FEF751FC8DF81C00C0F375
:1019680007238DF81D30C0F307408DF81E00079936
:101978000848FEF7C5FF1648FEF7C8FC5FE71B4B93
:1019880000221A60E5E700BFF00B0020B824002011
:10199800703D000840230020181F00207408002014
:1019A800EC210020981D00207405002098200020BC
:1019B800181C002074020020AC240020A024002061
:1019C80094240020DC0B0020A40B00209C0B00209A
:1019D800BC0B0020B40B0020AC0B0020780B0020BF
:1019E800740B002000000240683C0008980B00209F
:1019F8000010024010B504460E4B1A784FF47A7363
:101A0800B3FBF2F30C4A1068B0FBF3F000F0A8F84F
:101A180068B90F2C01D901200AE0002221464FF0B5
:101A2800FF3000F07FF8054B1C60002000E001202B
:101A380010BD00BF08000020100000200C0000208E
:101A480008B50B4B1A6842F400721A601A6842F41F
:101A580080621A601A6842F480721A60032000F0EB
:101A68004FF80F20FFF7C6FF00F058FC002008BD14
:101A7800003C0240034A1168034B1B780B44136077
:101A8800704700BF4425002008000020014B18685B
:101A9800704700BF44250020002808DB0901C9B2AF
:101AA80000F1604000F5614080F80013704700F0D5
:101AB8000F000901C9B2014B1954704714ED00E039
:101AC80000B500F00700C0F1070CBCF1040F28BFF7
:101AD8004FF0040C031D062B0FD9C31E4FF0FF3E19
:101AE8000EFA0CF021EA000199400EFA03FE22EAF0
:101AF8000E0241EA02005DF804FB0023EEE7000055
:101B0800074AD36823F4E0631B041B0C000200F4AB
:101B1800E060034343F0BF6343F40033D36070478E
:101B280000ED00E010B50446054BD868C0F302206C
:101B3800FFF7C6FF01462046FFF7AEFF10BD00BF06
:101B480000ED00E0002807DB00F01F024009012338
:101B58009340024A42F82030704700BF00E100E09D
:101B68000138B0F1807F0BD24FF0E0235861054A6D
:101B7800F02182F823100020986107221A6170472B
:101B88000120704700ED00E030B405682C6824F4AB
:101B980080242C60046863608368402B05D0036848
:101BA80099600368DA6030BC704703689A6003681C
:101BB800D960F8E710B40368D9B210390C4AA2FB0F
:101BC800014212090B4CA25CC2655F2909D923F4B2
:101BD8007F7323F0030304338365806D5DF8044B42
:101BE800704723F47F7323F003038365F5E700BF91
:101BF800ABAAAAAA783D0008836A826992B9012B28
:101C08000AD0022B02D00BB100207047C36A13F030
:101C1800807F28D100207047C36AB3F1C07F24D0E9
:101C280000207047B2F5005F09D0022B25D9032B9D
:101C380025D1C36A13F0807F23D100207047032B7E
:101C480003D8DFE803F01404140A00207047C36ABD
:101C580013F0807F0DD100207047C36AB3F1C07FB5
:101C680009D00020704701207047012070470120EB
:101C780070470120704701207047012070470020FD
:101C8800704701207047000070B50446FFF7FEFE5C
:101C9800002C5BD00546022384F83530002384F8F5
:101CA80034302268136823F00103136023681A682C
:101CB80012F0010F0AD0FFF7E9FE431B052BF5D9F7
:101CC80020236365032084F8350070BD1A68204915
:101CD80011406268A0680243E06802432069024339
:101CE80060690243A0690243E0690243206A024333
:101CF8000A43616A04291ED01A602668756925F0AE
:101D08000705636A1D43042B07D1A36A1D43E36AD1
:101D18001BB12046FFF770FF90B975612046FFF7A9
:101D280049FFE26D3F2393408360002060650123F3
:101D380084F83530C9E7E16A206B01430A43DBE7E1
:101D480040236365012084F83500BEE70120BCE725
:101D58003F8010F000282DD038B5054690F83500A2
:101D6800C0B2022825D02A68136823F00103136043
:101D78002B6800241C602B685C602B689C602B68B7
:101D8800DC602B681C612B6821225A612846FFF70A
:101D980011FFEC632C646C64AC64EC642C65EA6D34
:101DA8003F23934083606C6585F8354085F834405F
:101DB800204638BD0120704738B5044690F83400F5
:101DC80001281BD0012084F8340094F83500C0B2F3
:101DD800012804D0002384F83430022038BD0220C2
:101DE80084F83500002565652046FFF7CDFE22689A
:101DF800136843F0010313602846EFE70220EDE77C
:101E080038B50446856D90F8340001282BD00120A0
:101E180084F8340094F83500C0B2012804D00023B7
:101E280084F83430022038BD022084F835000020C0
:101E380060652046FFF7A8FEE26D3F239340AB6044
:101E48002268136843F016031360236C23B12268D9
:101E5800136843F0080313602268136843F0010312
:101E680013600020DFE70220DDE770B50446866DC9
:101E7800FFF70CFE94F83530DBB2022B06D0802336
:101E88006365002384F83430012070BD054622685C
:101E9800136823F0160313602268536923F0800344
:101EA8005361236CE3B12268136823F008031360BD
:101EB8002268136823F00103136023681B6813F07A
:101EC800010F11D0FFF7E2FD431B052BF5D92023A5
:101ED8006365032084F83500002384F83430D4E7A0
:101EE800A36C002BDFD1E3E7E26D3F239340B3609F
:101EF800012384F83530002084F83400C5E790F8D1
:101F08003530DBB2022B03D08023436501207047B4
:101F1800052380F835300268136823F00103136045
:101F280000207047F0B583B0044600230193724B3C
:101F38001D68724BA3FB0535AD0A876D3E68C26DFF
:101F480008239340334210D003681A6812F0040F34
:101F58000BD01A6822F004021A60C26D082393405D
:101F6800BB60436D43F001034365E26D0123934079
:101F7800334209D02268526912F0800F04D0BB6046
:101F8800636D43F002036365E26D042393403342BB
:101F980009D02268126812F0020F04D0BB60636D8A
:101FA80043F004036365E26D10239340334224D069
:101FB8002268126812F0080F1FD0BB6023681A68E5
:101FC80012F4802F0DD01B6813F4002F04D1236C5A
:101FD8009BB12046984710E0A36C73B12046984700
:101FE8000BE01A6812F4807F03D11A6822F0080205
:101FF8001A60236C0BB120469847E26D202393406A
:10200800334255D02268126812F0100F50D0BB60CE
:1020180094F83530DBB2052B0ED023681A6812F419
:10202800802F33D01B6813F4002F2AD1636C002B48
:102038003ED0204698473BE02268136823F01603F9
:1020480013602268536923F080035361236CA3B1A2
:102058002268136823F008031360E26D3F2393405E
:10206800BB60012384F83530002384F83430236DB5
:10207800002B3FD0204698473CE0A36C002BE7D1CB
:10208800EBE7E36BA3B12046984711E01A6812F416
:10209800807F09D11A6822F010021A60012384F89F
:1020A8003530002384F83430E36B0BB12046984771
:1020B800636DFBB1636D13F0010F17D0052384F82E
:1020C80035302268136823F001031360019B013344
:1020D8000193AB4204D823681B6813F0010FF5D1B4
:1020E800012384F83530002384F83430E36C0BB1D5
:1020F8002046984703B0F0BD10000020B5814E1B64
:1021080000230F2B00F2E98070B582B065E0856886
:102118004FEA430E032404FA0EF425EA0405CC68BA
:1021280004FA0EF42C438460446824EA02044A68E2
:10213800C2F300129A40224342605CE0DC08083493
:1021480050F8242003F00705AD004FF00F0E0EFAEB
:1021580005FE22EA0E0E0A69AA4042EA0E0240F87B
:1021680024205CE0072200E0002202FA0EF22A4353
:1021780002345A4D45F82420594A94686FEA0C02F3
:1021880024EA0C054E6816F4801F01D04CEA0405B9
:10219800534CA560E46802EA04054E6816F4001F73
:1021A80001D04CEA04054E4CE560646802EA040577
:1021B8004E6816F4003F01D04CEA0405484C6560AF
:1021C800246822404D6815F4803F01D04CEA04028F
:1021D800434C226001330F2B7DD801229A400C68B2
:1021E80004EA020C32EA0404F4D14C6804F0030453
:1021F800013C012C8BD94A6802F00302032A09D05A
:10220800C4685D000322AA4024EA02048A68AA403E
:102218002243C2604A6802F00302022A8ED0046890
:102228004FEA430E032202FA0EF224EA02044A6835
:1022380002F0030202FA0EF2224302604A6812F424
:10224800403FC7D000220192264A546C44F480448F
:102258005464526C02F480420192019A9C08A51CB5
:102268001E4A52F8255003F0030E4FEA8E0E0F2235
:1022780002FA0EF225EA02051B4A90423FF474AFB7
:1022880002F5806290421AD002F58062904218D01E
:1022980002F58062904216D002F58062904214D016
:1022A80002F58062904212D002F58062904210D00E
:1022B80002F5806290423FF455AF082255E70122AB
:1022C80053E7022251E703224FE704224DE7052294
:1022D8004BE7062249E702B070BD7047003801405D
:1022E800003C01400038024000000240436901EA16
:1022F800030221EA030141EA024181617047704704
:1023080008B5054B5B69034200D108BD024B586113
:10231800FFF7F5FFF9E700BF003C014082B000215C
:1023280000910B4B5A6C42F480425A645A6C02F486
:1023380080420092009A01911A6C42F080521A640D
:102348001B6C03F080530193019B02B0704700BFE0
:102358000038024010B588B0002303930493059316
:10236800069307930268184B9A4201D008B010BD33
:102378000024019403F5FA331A6C42F400321A640B
:102388001A6C02F400320192019A02941A6B42F01C
:1023980001021A631B6B03F001030293029B0C23D7
:1023A800039302230493032306930723079303A9A4
:1023B8000648FFF7A5FE224621462620FFF7B2FB76
:1023C8002620FFF7BFFBD1E7004400400000024091
:1023D800002800F0E08170B582B00446036813F06D
:1023E800010F3BD09F4B9B6803F00C03042B2CD0B0
:1023F8009C4B9B6803F00C03082B21D06368B3F552
:10240800803F4FD0B3F5A02F52D0964B1A6822F4D4
:1024180080321A601A6822F480221A606368002BDE
:1024280050D0FFF733FB05468E4B1B6813F4003F73
:1024380014D1FFF72BFB401B6428F5D90320B1E129
:10244800884B5B6813F4800FD8D0864B1B6813F455
:10245800003F03D06368002B00F09F81236813F0CE
:10246800020F54D07F4B9B6813F00C0F3ED07D4B6E
:102478009B6803F00C03082B33D0E368002B68D06B
:10248800794B01221A60FFF701FB0546754B1B6863
:1024980013F0020F54D1FFF7F9FA401B0228F5D9BF
:1024A80003207FE16F4A136843F480331360B5E774
:1024B8006C4B1A6842F480221A601A6842F480321F
:1024C8001A60ABE7FFF7E2FA0546664B1B6813F4A0
:1024D800003FC3D0FFF7DAFA401B6428F5D9032080
:1024E80060E1604B5B6813F4800FC6D15D4B1B68DD
:1024F80013F0020F03D0E368012B40F05081594AD2
:10250800136823F0F803216943EAC10313602368C1
:1025180013F0080F42D063696BB3534B0122C3F821
:10252800802EFFF7B3FA05464E4B5B6F13F0020F90
:1025380034D1FFF7ABFA401B0228F5D9032031E16B
:10254800484A136823F0F803216943EAC10313607A
:10255800DDE7454B00221A60FFF798FA0546414B24
:102568001B6813F0020FD2D0FFF790FA401B022825
:10257800F5D9032016E13C4B0022C3F8802EFFF763
:1025880085FA0546374B5B6F13F0020F06D0FFF74D
:102598007DFA401B0228F5D9032003E1236813F0D4
:1025A800040F77D02F4B1B6C13F0805F33D10023BF
:1025B80001932C4B1A6C42F080521A641B6C03F086
:1025C80080530193019B0125284B1B6813F4807FDE
:1025D80023D0A368012B34D0052B38D0214B1A6F98
:1025E80022F001021A671A6F22F004021A67A36820
:1025F800002B3DD0FFF74AFA06461A4B1B6F13F023
:10260800020F46D1FFF742FA801B41F28833984205
:10261800F3D90320C6E00025D6E7144A136843F42B
:1026280080731360FFF732FA0646104B1B6813F4E9
:10263800807FCED1FFF72AFA801B0228F5D9032024
:10264800B0E0084A136F43F001031367CFE7054B67
:102658001A6F42F004021A671A6F42F001021A67F1
:10266800C5E700BF00380240000047420070004044
:10267800FFF70CFA0646524B1B6F13F0020F08D0F7
:10268800FFF704FA801B41F288339842F3D90320FC
:1026980088E0EDB9A369002B00F08380484A92686E
:1026A80002F00C02082A51D0022B17D0454B002209
:1026B8001A66FFF7EBF90446414B1B6813F0007FDD
:1026C80042D0FFF7E3F9001B0228F5D9032069E09F
:1026D8003B4A136C23F080531364DBE7394B002229
:1026E8001A66FFF7D3F90546354B1B6813F0007FD0
:1026F80006D0FFF7CBF9401B0228F5D9032051E09B
:10270800E369226A1343626A43EA8213A26A52089F
:10271800013A43EA0243E26A43EA0263284A536001
:10272800284B01221A66FFF7B1F90446244B1B68AF
:1027380013F0007F06D1FFF7A9F9001B0228F5D98D
:1027480003202FE000202DE000202BE0012B2BD0D0
:102758001B4B5B6803F48001E269914226D103F0C8
:102768003F02216A8A4223D1616A47F6C0721A4041
:10277800B2EB811F1ED103F44031A26A5208013A1C
:10278800B1EB024F18D103F07063E26AB3EB026F4A
:1027980014D1002006E001207047012002E001204A
:1027A80000E0002002B070BD0120FBE70120F9E73E
:1027B8000120F7E70120F5E70120F3E70120F1E721
:1027C800003802400000474208B5334B9B6803F0CD
:1027D8000C03042B5BD0082B5BD12F4B5A6802F0FB
:1027E8003F025B6813F4800F2CD02B4B5868C0F362
:1027F80088104FEA401CBCEB000C6EEB0E0E4FEA43
:102808008E1343EA9C634FEA8C11B1EB0C0163EB26
:102818000E03DB0043EA5173C90011EB000C43F1CE
:102828000003590200234FEA4C2041EADC51FDF72E
:10283800A7FC194B5B68C3F3014301335B00B0FB92
:10284800F3F027E0144B5868C0F388104FEA401C97
:10285800BCEB000C6EEB0E0E4FEA8E1343EA9C6342
:102868004FEA8C11B1EB0C0163EB0E03DB0043EA7A
:102878005173C90011EB000C43F1000399020023C6
:102888004FEA8C2041EA9C51FDF77AFCD1E70348D6
:1028980000E0034808BD00BF0038024000127A007B
:1028A8000024F400002800F09B8070B50D46044613
:1028B8004F4B1B6803F007038B4208D2CBB24C4A3C
:1028C8001370136803F007038B4240F08B80236872
:1028D80013F0020F17D013F0040F04D0454A936881
:1028E80043F4E0539360236813F0080F04D0414A7F
:1028F800936843F4604393603E4A936823F0F0037F
:10290800A1680B439360236813F0010F32D063680A
:10291800012B21D09A1E012A25D9364A126812F0B5
:10292800020F61D033498A6822F0030213438B6097
:10293800FFF7ACF806462F4B9B6803F00C03626860
:10294800B3EB820F16D0FFF7A1F8801B41F2883352
:102958009842F0D9032042E0264A126812F4003F58
:10296800E0D101203BE0234A126812F0007FD9D160
:10297800012034E01E4B1B6803F00703AB4207D964
:10298800EAB21B4B1A701B6803F00703AB422DD148
:10299800236813F0040F06D0164A936823F4E05313
:1029A800E1680B439360236813F0080F07D0114ABE
:1029B800936823F46043216943EAC1039360FFF7F6
:1029C80003FF0C4B9B68C3F303130B4AD35CD8403B
:1029D8000A4B18600A4B1868FFF70CF8002070BD06
:1029E800012070470120FAE70120F8E70120F6E707
:1029F800003C024000380240883D000810000020DA
:102A08000C000020014B1868704700BF1000002020
:102A180008B5FFF7F7FF044B9B68C3F38223034A0B
:102A2800D35CD84008BD00BF00380240803D000894
:102A380008B5FFF7E7FF044B9B68C3F34233034A2B
:102A4800D35CD84008BD00BF00380240803D000874
:102A580030B4036A23F001030362036A426884699D
:102A680024F0730C0C6844EA0C0423F0020C8B6805
:102A780043EA0C03114DA84203D005F58065A8422E
:102A880005D123F00803CD682B4323F004030B4D35
:102A9800A84203D005F58065A84207D122F4407208
:102AA8004D6945EA020C8A6942EA0C024260846177
:102AB8004A684263036230BC704700BF00000140AF
:102AC80030B4036A23F480730362036A4268C469FA
:102AD80024F0730C0C6844EA0C0523F400738C682A
:102AE80043EA0423114CA04203D004F58064A042B9
:102AF80006D123F40063CC6843EA042323F48063FB
:102B08000A4CA04203D004F58064A04207D122F405
:102B180040524C6942EA04128C6942EA041242604B
:102B2800C5614A68C263036230BC70470000014057
:102B380030B4036A23F480530362036A4468C269A9
:102B480022F4E6420D6842EA052223F400538D6818
:102B580043EA0533094DA84203D005F58065A8422C
:102B680004D124F480444D6944EA85144460C26168
:102B78004A680264036230BC704700BF000001402D
:102B880090F83D30DBB2012B32D1022380F83D3082
:102B98000368194A934220D0B3F1804F1DD0A2F5A3
:102BA8007C42934219D002F58062934215D002F517
:102BB8008062934211D002F5784293420DD002F51B
:102BC8007052934209D0A2F59432934205D01A6804
:102BD80042F001021A60002070479A6802F007026A
:102BE800062A07D01A6842F001021A6000207047CE
:102BF800012070470020704700000140704770476F
:102C080070477047704710B5044603681A6912F098
:102C1800020F11D0DA6812F0020F0DD06FF0020225
:102C28001A610123037703689B6913F0030F70D0BF
:102C3800FFF7E6FF0023237723681A6912F0040FD1
:102C480012D0DA6812F0040F0ED06FF004021A6185
:102C58000223237723689B6913F4407F5FD02046C3
:102C6800FFF7CEFF0023237723681A6912F0080FB5
:102C780012D0DA6812F0080F0ED06FF008021A614D
:102C8800042323772368DB6913F0030F4ED0204613
:102C9800FFF7B6FF0023237723681A6912F0100F95
:102CA80012D0DA6812F0100F0ED06FF010021A610D
:102CB800082323772368DB6913F4407F3DD020463F
:102CC800FFF79EFF0023237723681A6912F0010F8C
:102CD80003D0DA6812F0010F36D123681A6912F0AE
:102CE800800F03D0DA6812F0800F34D123681A6994
:102CF80012F0400F03D0DA6812F0400F32D1236887
:102D08001A6912F0200F03D0DA6812F0200F30D1C0
:102D180010BDFFF774FF2046FFF773FF8AE72046D0
:102D2800FFF76DFF2046FFF76CFF9BE72046FFF794
:102D380066FF2046FFF765FFACE72046FFF75FFF19
:102D48002046FFF75EFFBDE76FF001021A612046DB
:102D5800FEF788FBC1E76FF080021A61204600F099
:102D6800D8F9C3E76FF040021A612046FFF74AFF1F
:102D7800C5E76FF020021A61204600F0C9F9C7E7DD
:102D88000368304A904212D0B0F1804F0FD0A2F5BC
:102D98007C4290420BD002F58062904207D002F547
:102DA8008062904203D002F57842904203D123F02A
:102DB80070034A681343234A90422AD0B0F1804FE7
:102DC80027D0A2F57C42904223D002F5806290423F
:102DD8001FD002F5806290421BD002F578429042E3
:102DE80017D002F57052904213D002F580629042DB
:102DF8000FD002F5806290420BD0A2F59832904233
:102E080007D002F58062904203D002F580629042BA
:102E180003D123F44073CA68134323F080034A693B
:102E2800134303608B68C3620B688362054B984247
:102E380003D003F58063984201D10B690363012332
:102E4800436170470000014040B310B5044690F854
:102E58003D30F3B1022384F83D30214651F8040B8C
:102E6800FFF78EFF012384F8463084F83E3084F85B
:102E78003F3084F8403084F8413084F8423084F898
:102E8800433084F8443084F8453084F83D300020DD
:102E980010BD80F83C30FFF7B1FEDBE7012070473A
:102EA80030B4036A23F010030362036A446882693A
:102EB80022F4E6420D6842EA052223F020038D68D9
:102EC80043EA0513114DA84203D005F58065A842D1
:102ED80006D123F08003CD6843EA051323F04003AD
:102EE8000A4DA84203D005F58065A84207D124F40D
:102EF80040644D6944EA85048D6944EA8504446068
:102F080082614A688263036230BC704700000140F6
:102F180038B590F83C30012B66D004460D460123A5
:102F280080F83C300C2A5AD8DFE802F00759595982
:102F38001B5959593059595944000068FFF788FD01
:102F48002268936943F0080393612268936923F028
:102F5800040393612268936929690B4393610020F4
:102F68003EE00068FFF79CFF2268936943F4006322
:102F780093612268936923F480639361226893695B
:102F8800296943EA01239361002029E00068FFF7DB
:102F980097FD2268D36943F00803D3612268D36997
:102FA80023F00403D3612268D36929690B43D361F1
:102FB800002015E00068FFF7BBFD2268D36943F4E1
:102FC8000063D3612268D36923F48063D3612268E4
:102FD800D369296943EA0123D361002000E0012075
:102FE800002384F83C3038BD0220FCE701F01F01C3
:102FF8004FF0010C0CFA01FC036A23EA0C0303628C
:10300800036A8A40134303627047000010B5044600
:103018000846002942D194F83E30DBB2013B18BF84
:103028000123002B6ED1002851D1022384F83E30B1
:10303800012201462068FFF7D9FF2368334A9342EB
:1030480003D002F58062934203D15A6C42F40042E5
:103058005A6423682D4A934249D0B3F1804F46D031
:10306800A2F57C42934242D002F5806293423ED060
:1030780002F5806293423AD002F57842934236D004
:1030880002F57052934232D0A2F5943293422ED078
:103098001A6842F001021A60002032E0042908D0C0
:1030A80008290DD094F84130DBB2013B18BF012349
:1030B800B7E794F83F30DBB2013B18BF0123B0E714
:1030C80094F84030DBB2013B18BF0123A9E704287C
:1030D80005D0082807D0022384F84130A8E7022346
:1030E80084F83F30A4E7022384F84030A0E79A68C8
:1030F80002F00702062A07D01A6842F001021A6095
:10310800002010BD0120FCE70020FAE70000014084
:1031180070477047026802F10C0353E8003F23F43C
:1031280090730C3242E800310029F3D1026802F1B1
:10313800140353E8003F23F00103143242E800313E
:103148000029F3D1036B012B05D0202380F83E30F2
:10315800002303637047026802F10C0353E8003F41
:1031680023F010030C3242E800310029F3D1ECE7D8
:1031780090F83D30DBB2212B01D0022070478368E4
:10318800B3F5805F17D0036A5A1C02621A78036885
:103198005A60C38C9BB2013B9BB2C3844BB9026893
:1031A800D36823F08003D3600268D36843F04003F8
:1031B800D360002070470369002BE4D1036A1B88A1
:1031C8000268C3F308035360036A02330362E0E74B
:1031D80010B504460268136923F44053C1680B43D1
:1031E8001361836802691A4343691A43C3691A431E
:1031F8000168CB6823F4164323F00C031343CB6018
:103208000268536923F4407381690B43536103686F
:10321800314A934206D002F58062934202D0FFF70A
:10322800F7FB01E0FFF704FCE369B3F5004F29D091
:103238000021031849411B1841F10001C90041EA66
:103248005371DB00181863684FEA83024FEA9373DF
:1032580041F10001FCF794FF204AA2FB0031490923
:10326800642303FB11031B013233A2FB03235B0915
:1032780003F0F00202EB011203F00F03216813447C
:103288008B6010BD0023021843EB0301121841F1B3
:103298000001C90041EA5271D200101841F1000141
:1032A800626892185B41FCF76BFF0C4AA2FB003185
:1032B8004909642303FB1103DB003233A2FB032318
:1032C8005B095A0002F4F87202EB011203F00703DB
:1032D800216813448B60D4E7001001401F85EB512F
:1032E8002DE9F84305460F4616469946DDF8208035
:1032F8002B681C6837EA04040CBF01240024B4427C
:103308002DD1B8F1FF3FF3D0B8F1000F05D0FEF78B
:10331800BDFBA0EB09004045EAD92A6802F10C037D
:1033280053E8003F23F4D0730C3242E800310029FF
:10333800F3D12A6802F1140353E8003F23F0010394
:10334800143242E800310029F3D1202385F83D30BA
:1033580085F83E30002385F83C30032000E000204B
:10336800BDE8F88358B310B5044690F83D300BB368
:10337800242384F83D302268D36823F40053D360B3
:103388002046FFF725FF2268136923F49043136151
:103398002268536923F02A0353612268D36843F4EF
:1033A8000053D36000202064202384F83D3084F843
:1033B8003E3010BD80F83C30FEF7CCFFD8E7012046
:1033C80070472DE9F04182B01E4690F83D30DBB2DF
:1033D800202B54D104460D469046002953D0002A8C
:1033E80053D090F83C30012B51D0012380F83C3069
:1033F80000230364212380F83D30FEF747FB07468E
:10340800A4F82480A4F82680A368B3F5805F05D0CB
:103418004FF00008002384F83C3012E0236913B110
:103428004FF00008F6E7A8460025F3E738F8023B16
:103438002268C3F308035360E28C92B2013A92B255
:10344800E284E38C9BB273B100963B460022802154
:103458002046FFF745FFE0B9002DE7D015F8012B0E
:1034680023685A60E8E700963B4600224021204640
:10347800FFF736FF78B9202384F83D3000E00220BA
:1034880002B0BDE8F0810120FAE70120F8E7022048
:10349800F6E70320F4E70320F2E7704708B5016870
:1034A800CA6822F04002CA60202280F83D20FFF757
:1034B800F4FF002008BD704708B5806B0023C38562
:1034C800C384FFF7F8FF08BD704790F83E30DBB2C1
:1034D800222B67D18368B3F5805F4DD0826AB3F53C
:1034E800805F04D0002B54D10369002B51D10368AD
:1034F8005B681370836A01338362C38D9BB2013B9F
:103508009BB2C385002B4FD100B583B00268D36846
:1035180023F02003D3600268D36823F48073D36058
:103528000268536923F001035361202380F83E3079
:10353800036B012B33D100230363026802F10C03F0
:1035480053E8003F23F010030C3242E80031002911
:10355800F3D103681A6812F0100F06D00022019206
:103568001A6801925B680193019B818DFFF7ACFF9C
:10357800002003B05DF804FB0269002AAED1826A1C
:1035880003685B68C3F308031380836A02338362AA
:10359800B3E703685B6803F07F031370AAE7FEF7DD
:1035A8000BF8E5E7022070470020704710B582B09D
:1035B800044602681368D068516913F00F0F09D1E7
:1035C80013F0200F0CD010F0200F09D02046FFF781
:1035D8007CFF16E011F0010115D110F4907F12D193
:1035E800216B012979D013F0800F03D010F0800FE0
:1035F80040F0108113F0400F03D010F0400F40F05E
:103608000D8102B010BD13F0010F06D010F4807FB9
:1036180003D0226C42F00102226413F0040F04D09C
:1036280019B1226C42F00202226413F0020F04D096
:1036380019B1226C42F00402226413F0080F07D07B
:1036480010F0200F00D119B1226C42F00802226458
:10365800226C002AD5D013F0200F02D010F0200FD2
:1036680029D123685B6903F04003226C12F0080F2C
:1036780000D163B32046FFF74DFD23685B6913F063
:10368800400F20D0226802F1140353E8003F23F0D2
:103698004003143242E800310029F3D1A36B73B11F
:1036A800604A1A65A06BFEF72AFC0028A9D0A06B17
:1036B800036D9847A5E72046FFF707FFD1E72046A7
:1036C800FFF7F9FE9DE72046FFF7F5FE99E720464C
:1036D800FFF7F1FE0023236493E713F0100F82D065
:1036E80010F0100F3FF47FAF00230193136801938C
:1036F80053680193019B536913F0400F50D0A26B9C
:1037080013685B689BB2002B3FF47BAFA18D994295
:103718007FF677AFE385D369B3F5807F37D022682A
:1037280002F10C0353E8003F23F480730C3242E8A3
:1037380000310029F3D1226802F1140353E8003F55
:1037480023F00103143242E800310029F3D1226842
:1037580002F1140353E8003F23F04003143242E817
:1037680000310029F3D1202384F83E30002323635D
:10377800226802F10C0353E8003F23F010030C32D7
:1037880042E800310029F3D1A06BFEF76EFBA18D52
:10379800E38D9BB2C91A89B22046FFF795FE30E740
:1037A800A18DE38D9BB2C91A89B2E38D9BB2002B20
:1037B8003FF427AF00293FF424AF226802F10C033D
:1037C80053E8003F23F490730C3242E8003000289D
:1037D800F3D1226802F1140353E8003F23F00103F8
:1037E800143242E800300028F3D1202384F83E3018
:1037F80000232363226802F10C0353E8003F23F0FF
:1038080010030C3242E800300028F3D12046FFF7BD
:103818005BFEF6E62046FFF7ABFCF2E62046FFF734
:103828003DFEEEE6C134000881628285C285002330
:103838000364222280F83E2080F83C30036923B1DB
:103848000268D36843F48073D3600268536943F015
:10385800010353610268D36843F02003D36000205A
:10386800704708B590F83E30DBB2202B0DD171B10E
:103878007AB190F83C30012B0DD0012380F83C3010
:1038880000230363FFF7D0FF00E0022008BD0120FA
:10389800FCE70120FAE70220F8E7FEE7FEE7FEE78B
:1038A800FEE7FEE7704770477047000008B502481A
:1038B800FFF77CFE08BD00BFB824002008B5024809
:1038C800FFF7A1F908BD00BFFC240020034AD2F885
:1038D800883043F47003C2F88830704700ED00E088
:1038E800DFF834D00D480E490E4A002302E0D458C0
:1038F800C4500433C4188C42F9D30B4A0B4C002330
:1039080001E013600432A242FBD3FFF7DFFF00F0AF
:1039180019F8FDF7D7FE70470000022000000020CC
:1039280014000020A83D00081400002048250020AD
:10393800FEE702440346934200D1704703F8011B97
:10394800F9E7000070B50D4D0D4C641BA41000265E
:10395800A64209D10B4D0C4C00F076F9641BA4105B
:103968000026A64205D170BD55F8043B984701369C
:10397800EEE755F8043B98470136F2E7A03D00080A
:10398800A03D0008A03D0008A43D00082DE9F0472F
:10399800089D0C46002B4ED194468C458646B2FABB
:1039A80082F262D94AB1C2F12003914020FA03F3AE
:1039B8000CFA02FC194300FA02FE4FEA1C471FFAF0
:1039C8008CF6B1FBF7F44FEA1E4307FB141143EAE8
:1039D800014304FB06F199420AD91CEB030304F1E5
:1039E800FF3080F01281994240F20F81023C63441B
:1039F800591A1FFA8EF3B1FBF7F007FB101143EACF
:103A0800014300FB06F69E420AD91CEB030300F1B2
:103A1800FF3180F0FC809E4240F2F9806344023816
:103A28009B1B40EA044000211DB1D3400022C5E998
:103A38000032BDE8F0878B4205D90DB1C5E9000118
:103A480000210846F5E7B3FA83F1002946D1A342DD
:103A580002D39042C0F0F080861A64EB0303012081
:103A6800002DE6D0C5E90063E3E7002A40F0908026
:103A7800A1EB0C044FEA1C481FFA8CF70121B4FB98
:103A8800F8F64FEA1E4308FB164443EA044307FBD3
:103A980006F0984208D91CEB030306F1FF3402D262
:103AA800984200F2CD8026461C1A1FFA8EF3B4FB0A
:103AB800F8F008FB104443EA044300FB07F79F4271
:103AC80008D91CEB030300F1FF3402D29F4200F235
:103AD800B0802046DB1B40EA0640A5E7C1F120067E
:103AE8008B4022FA06F71F4320FA06FC04FA01F37A
:103AF80043EA0C03F44000FA01F8380C4FEA134982
:103B0800B4FBF0FE1FFA87FC00FB1E4449EA04449C
:103B18000EFB0CF9A14502FA01F20AD93C190EF183
:103B2800FF3A80F08480A14540F28180AEF1020E18
:103B38003C44A4EB09041FFA83F9B4FBF0F300FB3F
:103B4800134449EA044403FB0CFCA44507D93C1977
:103B580003F1FF3067D2A44565D9023B3C4443EAF0
:103B68000E40A0FB0293A4EB0C049C42CE469C465C
:103B780051D34ED055B1B8EB0E0364EB0C0404FAE4
:103B880006F6CB401E43CC40C5E90064002150E74F
:103B9800C2F1200320FA03F10CFA02FC24FA03F321
:103BA80094400C434FEA1C4800FA02FE1FFA8CF7B7
:103BB800B3FBF8F008FB1031230C43EA014300FB88
:103BC80007F1994208D91CEB030300F1FF362CD208
:103BD80099422AD9023863445B1AA4B2B3FBF8F1BC
:103BE80008FB113344EA034401FB07F3A34208D955
:103BF8001CEB040401F1FF3613D2A34211D9023998
:103C08006444E41A41EA004139E70446F0E608460C
:103C180006E7C845AED2B9EB020E63EB070C0138D4
:103C2800A8E73146EDE7034699E73046D4E7D6469C
:103C38007FE7634402384DE70646234608460FE708
:103C4800023E634430E700BFF8B500BFF8BC08BCCB
:103C58009E467047F8B500BFF8BC08BC9E46704742
:103C68007265616479210000000000000000000016
:103C7800000000000000000000000000000000003C
:103C88000000000001010101010101010101010120
:103C980001020202020202020203030303030303F6
:103CA80004040404040505050506060606070707B7
:103CB800070808080909090A0A0A0B0B0B0C0C0D5E
:103CC8000D0D0E0E0F0F10101111121213131414E4
:103CD8001515161617181819191A1B1B1C1D1D1E49
:103CE8001F202021222323242526272728292A2B81
:103CF8002C2D2E2F303132323334363738393A3B87
:103D08003C3D3E3F40424344454648494A4B4D4E60
:103D18004F515253555657595A5C5D5F60626365FF
:103D28006668696B6D6E7072737577787A7C7E7F62
:103D380081838587898A8C8E90929496989A9C9E86
:103D4800A0A2A4A7A9ABADAFB1B4B6B8BABDBFC164
:103D5800C4C6C8CBCDD0D2D5D7DADCDFE1E4E7E9F9
:103D6800ECEFF1F4F7F9FCFF48454C4C4F0000002C
:103D780000061016000610160000000001020304D9
:103D88000000000000000000010203040607080903
:083D9800FCFBFF7F01000000AD
:043DA000E101000835
:043DA400BD01000855
:103DA80000000F000F0000000100000010000000DC
:043DB8000024F400EF
:04000005080038E9CE
:00000001FF
