:020000040800F2
:100000000000022061320008291300082B130008A9
:100010002D1300082F130008311300080000000002
:100020000000000000000000000000003313000882
:10003000351300080000000037130008CD0E00083B
:10004000B1320008B1320008B1320008B132000804
:10005000B1320008B1320008B1320008B1320008F4
:10006000B1320008210F0008B1320008B132000897
:10007000B1320008B1320008B1320008B1320008D4
:10008000B1320008B1320008B1320008B1320008C4
:10009000B1320008B1320008B1320008B1320008B4
:1000A000B1320008050C0008B1320008B132000876
:1000B000B1320008B1320008B1320008B132000894
:1000C000B1320008B1320008B1320008B132000884
:1000D000B1320008B132000839130008B13200080B
:1000E000B1320008B1320008B1320008B132000864
:1000F000B1320008B1320008B1320008B132000854
:10010000B1320008B1320008B1320008B132000843
:10011000B1320008B132000849130008B1320008BA
:10012000B1320008B1320008E50B0008B132000816
:10013000B1320008B1320008B1320008B132000813
:10014000B1320008B1320008B1320008B132000803
:10015000B1320008B1320008B1320008B1320008F3
:10016000B1320008B1320008B1320008B1320008E3
:10017000B1320008B1320008B132000800000000BE
:08018000B1320008B1320008A1
:1001880053B94AB9002908BF00281CBF4FF0FF31F6
:100198004FF0FF3000F00CB8ADF1080C6DE904CE5B
:1001A80003F0B0F8DDF804E0DDE9022304B070479D
:1001B800704700BF10B5054C237833B9044B13B111
:1001C8000448AFF300800123237010BD2C000020E9
:1001D80000000000C835000808B5034B1BB10349EF
:1001E8000348AFF3008008BD000000003000002085
:1001F800C835000800230370437083704360836030
:10020800C3600361704701230370436883607047CC
:1002180003784BB14368C36082689B1A036101236A
:1002280083700022027043707047000010B50446C6
:1002380043680133436010210B4801F00FFD08B9F2
:10024800237833B11021084801F008FD012804D0B3
:1002580010BD2046FFF7D7FFF4E72378002BF7D02F
:100268002046FFF7D5FFF3E700100240807870477B
:100278000078704700230370437083704360836085
:10028800C3600361704700B587B084460846002301
:1002980001930293039304930593CCF80010ACF8F0
:1002A80004200192012202920393049301A901F010
:1002B800DFFB07B05DF804FB037C63B10368C26829
:1002C800134403608268934213DD026000230374C1
:1002D800012343747047437C5BB10368C2689B1A6F
:1002E80003604268934204DA0260002343740123E6
:1002F8000374704701604160826001220274002229
:100308004274C3607047002977D02DE9F04383B069
:1003180004460D46CB78303B052B57D8DFE803F071
:1003280003133446564A0B794FF0000163F30F214B
:100338006B7963F307012B7A0093EB79AA7989B279
:1003480000F092F843E00B794FF0000163F30F21BE
:100358006B7963F307018EB2AB7963F30F21EB7905
:1003680063F307018FB295F8089095F80980AD7A84
:1003780007E0009543464A463146204600F074F8A7
:100388000136BE42F5DB22E091F804804F798E7980
:10039800002507E000963B4642462946204600F0E5
:1003A80063F80135A368AB42F4DC10E0097900F08A
:1003B800CCF80CE00B794FF0000163F30F216B7957
:1003C80063F307018EB28368B34203DA002003B0F7
:1003D800BDE8F0834FF000080627B045F6DA7B1C2D
:1003E800EA5DB91C695C0091EB5C03374146204625
:1003F80000F03AF808F10108EFE7704720B1002251
:1004080042710271016082607047836801338360C2
:10041800027922B90268934201D3012343717047DC
:100428000346407910B11B7903B1002070470023BF
:100438004371836070474260016083606423C360D6
:10044800704730B404686CB185688D420ADB01EBF3
:100458004101625404684A1CA354036802319DF8A0
:1004680008205A5430BC704730B444686CB1856871
:100478008D420ADB01EB4101625442680A44537021
:1004880043680B449DF808209A7030BC7047000000
:1004980030B587B00546002438E0D5ED037AF8EE8C
:1004A800E77ADFED1D6A87EEA67A696804EB4402F5
:1004B8008B188A5C07EE902AF8EE677A67EE877ADF
:1004C800FCEEE77ACDED037A5A7807EE902AF8EE3B
:1004D800677A67EE877AFCEEE77ACDED047A9B7847
:1004E80007EE903AF8EE677A67EE877AFCEEE77ADD
:1004F800CDED057A9DF8143000939DF810309DF8E5
:100508000C2021462846FFF79CFF0134AB68A34224
:10051800C3DC07B030BD00BF0000C84230B585B0AD
:100528000546039100240BE09DF80E3000939DF8DA
:100538000D309DF80C2021462846FFF795FF013421
:10054800AB68A342F0DC05B030BDC160704782B033
:1005580000230193019B0133019302B0704700000F
:1005680070B42E4EB45CF55C9DF80C30F25C01EB77
:100578004103E443ED43D243294901EB031101F15F
:10058800614101F580114E01830003EB4113E90934
:1005980046F82010A90919646909C3F880102909C7
:1005A800C3F8C010E908C3F80011A908C3F840113E
:1005B8006908C3F88011C3F8C051E109C3F80012F3
:1005C800A109C3F840126109C3F880122109C3F8D0
:1005D800C012E108C3F80013A108C3F8401361086A
:1005E800C3F88013C3F8C043D109C3F800149109B4
:1005F800C3F840145109C3F880141109C3F8C01492
:10060800D108C3F800159108C3F840155108C3F87C
:100618008015C3F8C02570BC704700BFE0350008DE
:10062800F001002070B582B005688468631C83609F
:100638002A5DA61C8660EB5C03348460AD5D466869
:10064800B44206D0009589B2007BFFF789FF02B05B
:1006580070BD00248460F5E72F4B4FF400529A6177
:100668002E4B9B6BB3F5C06F02D010B5002448E049
:1006780000202A4B98632A4A136823F00103136069
:10068800284B19680B6823F001030B60264B196887
:100698000B6823F001030B60244B19680B6823F0E7
:1006A80001030B60224B1B68D96821F48071D96063
:1006B800D96821F40071D960D96821F48061D960C2
:1006C8001C490968D1625062012151616FF0010132
:1006D8001961D96841F00101D960136843F0010339
:1006E8001360154B1A68154B9A610B4B4FF000526B
:1006F8009A6170470121094800EB0410FFF792FF47
:100708000134022CF6D9054A936B01339363024BEB
:100718004FF000529A6110BD000C024050020020B8
:100728000000014008010020A80000204800002027
:10073800A8010020680100200000002000080240F5
:1007480038B500254F4B83F830500CE04D4C04EB86
:1007580005140021A1602046FFF764FF012120460F
:10076800FFF760FF0135022DF0D9474B1B68474A58
:10077800934245D9583A4FF46061D160444A1068B1
:10078800424A904252D9583A4FF46061D160414A86
:1007980011683E4A91425FD9583A4FF46014D460C8
:1007A80030225A6042604A603B490A686FF01F0075
:1007B80010611A6842F001021A60354B1A68136812
:1007C80043F001031360334B1A68136843F00103C5
:1007D80013600B68DA6842F48072DA60DA6842F40F
:1007E8000072DA60DA6842F48062DA602B4A1268D2
:1007F800013A2B494A621A6842F001021A6038BD70
:10080800284A934205D902F552724FF4606191600B
:10081800B4E7254A934204D9583A4FF46061D1604D
:10082800ACE7224A4FF460619160A7E71D4A904205
:1008380005D902F552724FF460619160A7E71A4A30
:10084800904204D9583A4FF46061D1609FE7174A43
:100858004FF4606191609AE7124A914205D902F516
:1008680052724FF4601494609AE70F4A914204D987
:10087800583A4FF46014D46092E70C4A4FF460146D
:1008880094608DE75002002008010020586402405F
:10089800A800002048000020A80100206C010020CA
:1008A80000000140B8600240586002400060024009
:1008B80010B582B00E4B9B6BB3F5C06F01D000240E
:1008C8000EE000200090034602460146FFF748FE6E
:1008D8000CE00021064800EB0410FFF7A3FE0134EA
:1008E800022CF6D9024A936B0133936302B010BD10
:1008F8005002002070B588B000250195194C236B73
:1009080043F004032363236B03F004030193019B67
:100918000F230393012604960595069503A912480B
:1009280001F0A6F80295236B43F008032363236BB9
:1009380003F008030293029B04960595022306938D
:100948004FF400430393A4F5305403A9204601F063
:100958008FF84FF40053039303A9204601F088F859
:1009680008B070BD00380240000802402DE9F04F81
:1009780083B000250195464B1A6B42F480021A6336
:100988001B6B03F480030193019B424C4FF0400A18
:10099800C4F808A0E56025614FF4805363614FF403
:1009A800804BC4F818B04FF48079C4F81C904FF409
:1009B8004038C4F820804FF04067676065620326BE
:1009C800A662E5622563344B2360204600F07AFE78
:1009D800204600F011FE3023304A3149204600F00D
:1009E800A3FE304CC4F808A0E5604FF4806323618F
:1009F8004FF4006363614FF40053A361C4F81C9083
:100A0800C4F8208067606562A662E5622563264BAC
:100A18002360204600F056FE204600F0EDFD30230E
:100A2800224A2349204600F07FFE224CC4F808A041
:100A3800E56025614FF480536361C4F818B0C4F8C9
:100A48001C90C4F8208067606562A662E562256331
:100A5800194B2360204600F035FE184BE363184B12
:100A68002364184BE364204600F0C6FD2A46294655
:100A78003A2000F00FFD3A2000F01CFD3023074A11
:100A88001149204600F074FE03B0BDE8F08F00BFA6
:100A9800003802400801002088640240180802401B
:100AA80004000020A8000020286402401A08024020
:100AB800F001002048000020406402406106000860
:100AC800B908000857050008000000202DE9F0418A
:100AD80082B000240194354B5A6C42F001025A64EA
:100AE8005B6C03F001030193019B314B1A68130AF5
:100AF8003049A1FB03131B092F490B602F49A1FBA8
:100B08000212D20A2E490A6003EB83014A002D49DA
:100B1800A1FB0201CF082C49A1FB0212D6082B4DDC
:100B28002B4A2A60EB606C616C602C61AC602846D3
:100B380001F022FE22462146192000F0ABFC1920C4
:100B480000F0B8FC23494FF06008C1F800808C60C1
:100B58004F60CC600C612246284601F071FE1E49A8
:100B6800C1F800808C604E60CC600C614C618C6177
:100B78000422284601F064FE284601F06DFC214657
:100B8800284601F0DBFE2B68196A41F21112114266
:100B980008D1196A40F24442114203D11A6822F07E
:100BA80001021A6002B0BDE8F08100BF00380240BF
:100BB80020000020598B4F016C010020B5814E1B8D
:100BC80068010020398EE33889888888A8010020C8
:100BD800000001408C0100207001002010B5054C78
:100BE8004FF40043A361044800F054FE4FF0004363
:100BF800A36110BD000C02404800002010B5054C50
:100C08004FF40053A361044801F069FC4FF000530E
:100C1800A36110BD000C0240A80100200A4800236F
:100C280043630A4A13600A4B1B68D96821F0010123
:100C3800D96008490968D162012151616FF0010248
:100C48001A6180F8301070475002002000000140FF
:100C5800A80100206C01002008B5FFF74BFEFFF744
:100C680085FEFFF733FF024B012283F8302008BDD1
:100C78005002002008B5064B93F8313003B908BD7F
:100C8800034B002283F83120FFF75AFDF7E700BF36
:100C98005002002008B50D4B00221A730C4A1A6046
:100CA8004FF410625A6001221A770A4A1A614FF407
:100CB800C0625A61022283F82C20074A1A624FF454
:100CC80040725A62FFF7C8FF08BD00BF50020020FB
:100CD8008C0B00208C0500208C02002008B5064BE8
:100CE80093F8303003B908BD034B012283F8312053
:100CF800FFF7C0FFF7E700BF5002002000B58BB038
:100D080000220592069207920892099200921F4BC0
:100D1800196B41F010011963196B01F01001009172
:100D280000990192196B41F004011963196B01F0E4
:100D38000401019101990292196B41F08001196334
:100D4800196B01F08001029102990392196B41F02D
:100D580001011963196B01F00101039103990492D0
:100D68001A6B42F002021A631B6B03F0020304932E
:100D7800049B182305934FF48813069305A9044888
:100D880000F076FE0BB05DF804FB00BF00380240AF
:100D980000100240034B00221A60034B01221A7014
:100DA800704700BFE0140020E4140020024B1B68C9
:100DB8000178024AD1547047E0140020E818002056
:100DC80008B537490B88374A12783748C254013377
:100DD8000B80652A25D0354B1A781AB1344B1B681D
:100DE800012B37D01AB1324B1B68022B3BD02C4B4E
:100DF8001B88B3F5806F02D3294B002119802C4939
:100E08000B6801330B601AB12A4A1268934239D031
:100E18002448FFF7CBFF01222249274802F0FFF9B7
:100E280008BD224B1B78002BD5D101221F4B1A700D
:100E380000231F490B601A490A8003E01A4A00215F
:100E4800D1540133B3F5806FF8DB164B1A78164B83
:100E58001A70C0E7194B1B78002BC3D1114B1978B6
:100E6800174B5970BEE7154B1B78002BBFD10D4BA4
:100E78001978134B197019880E4B19600F4B012103
:100E88001970B4E70D4B1B78002BC1D00548FFF74C
:100E980081FF0023094A1370044A1370BBE700BF9F
:100EA800E6140020E8180020E8140020D8140020D8
:100EB800E0140020DC1400209C1B00209814002063
:100EC8008C14002008B500F08DFA0D48FFF79DFA44
:100ED8000C48FFF79AFA0C48FFF797FA0B4A136881
:100EE80001331360C82B04DC094A1368013313600B
:100EF80008BD0848FFF79AF9044B00221A60F3E787
:100F0800901B0020841B0020781B002090140020D8
:100F1800D4140020AC14002008B5082000F0B6FE58
:100F280008BD72B6FEE7000008B50A480A4B036020
:100F38004FF4E133436000238360C36003610C22F4
:100F480042618361C36101F0EBFE00B908BDFFF7A0
:100F5800E8FF00BF9C1B00200044004000B583B0A0
:100F68000023009301930D480D4A0260436083609B
:100F78004FF6FF72C260836101F0D2FB50B90023C3
:100F8800009301936946054801F05AFD20B903B062
:100F98005DF804FBFFF7C5FFFFF7C3FFE01B002068
:100FA8000010004000B595B03022002108A802F0DA
:100FB8007CF9002303930493059306930793019305
:100FC800204A116C41F080511164126C02F0805279
:100FD8000192019A02931C4A116841F48041116000
:100FE800126802F480420292029A0A2208920122AE
:100FF8000B9210210C910D9202220E920F9308234E
:101008001093A823119312920423139308A800F0B5
:101018004BFE98B90F2303930223049300230593EF
:101028004FF4A05306934FF480530793052103A868
:1010380001F0A4F820B915B05DF804FBFFF771FFC3
:10104800FFF76FFF003802400070004030B585B0F0
:1010580000F0AEF9FFF7A6FFFFF750FEFFF764FFB9
:10106800FFF77CFF5D4C01225D49204602F0D7F86E
:101078004FF47A7306225B49204601F080FEFFF7A1
:1010880009FE8023584A59495948FFF7D4F93221B3
:101098005848FFF7B3F914215748FFF7AFF94FF451
:1010A8007A715648FFF7AAF901234B224121544887
:1010B800FFF720F95348FFF79DF8534C00234022CF
:1010C80021465248FFF7DFF8002380222146504886
:1010D800FFF7D9F85FE04F4A01AB07CA03C31A808C
:1010E8004D494348FFF70FF94FF47A730A2201A9D3
:1010F8003A4801F044FE494B00221A704FE040483C
:10110800FFF7DAF83B48FFF792F94DE03848FFF768
:10111800BFF9FFF7E3FD3848FFF789F949E0404B8D
:1011280000221A602D4C4FF47A7307223D4920465D
:1011380001F025FE334D4FF47A73042229692046C5
:1011480001F01DFE4FF47A7301220021204601F0C0
:1011580016FE3549324B1B6803EB4303CA18CB5CB8
:10116800517843EA0123917843EA01412048FFF787
:10117800D5F92846FFF77EF8244B9988186800F0BF
:101188007AFD2048FFF774F800B3214B00229988B4
:10119800186800F06AFD214B1B78002B9BD115487D
:1011A800FFF73EF90028AAD11348FFF739F90028BC
:1011B800ACD11448FFF75AF80028E2D0184B1B6846
:1011C800052BACDC0133164A1360ABE7104B012248
:1011D8009988186800F049FDDDE700BF9C1B0020D6
:1011E800E8180020E0360008E81900208C0B0020E1
:1011F800681B0020901B0020841B0020781B002007
:10120800C0140020AC14002000000240A4140020E8
:101218009C140020F0360008E8140020E414002094
:1012280094140020E83600080800002082B000214D
:1012380000910B4B5A6C42F480425A645A6C02F487
:1012480080420092009A01911A6C42F080521A640E
:101258001B6C03F080530193019B02B0704700BFE1
:101268000038024002680E4B9A4200D0704700B521
:1012780083B00021019103F50A331A6C42F0100281
:101288001A641B6C03F010030193019B0A46362075
:1012980000F000F9362000F00DF903B05DF804FB0A
:1012A8000010004010B588B0002303930493059301
:1012B800069307930268184B9A4201D008B010BDF4
:1012C8000024019403F5FA331A6C42F400321A64CC
:1012D8001A6C02F400320192019A02941A6B42F0DD
:1012E80001021A631B6B03F001030293029B0C2398
:1012F800039302230493032306930723079303A965
:10130800064800F0B5FB22462146262000F0C2F828
:10131800262000F0CFF8D1E700440040000002404A
:10132800FEE7FEE7FEE7FEE7FEE770477047704717
:1013380008B5024801F018FE08BD00BF9C1B00203C
:1013480008B5024801F0CBF808BD00BFE01B00203B
:10135800034AD2F8883043F47003C2F888307047E3
:1013680000ED00E010B504460E4B1A784FF47A737E
:10137800B3FBF2F30C4A1068B0FBF3F000F0A8F8E6
:1013880068B90F2C01D901200AE0002221464FF04C
:10139800FF3000F07FF8054B1C60002000E00120C2
:1013A80010BD00BF240000202000002028000020DD
:1013B80008B50B4B1A6842F400721A601A6842F4B6
:1013C80080621A601A6842F480721A60032000F082
:1013D8004FF80F20FFF7C6FFFFF728FF002008BDD2
:1013E800003C0240034A1168034B1B780B4413600E
:1013F800704700BF281C002024000020014B1868FB
:10140800704700BF281C0020002808DB0901C9B26A
:1014180000F1604000F5614080F80013704700F06B
:101428000F000901C9B2014B1954704714ED00E0CF
:1014380000B500F00700C0F1070CBCF1040F28BF8D
:101448004FF0040C031D062B0FD9C31E4FF0FF3EAF
:101458000EFA0CF021EA000199400EFA03FE22EA86
:101468000E0241EA02005DF804FB0023EEE70000EB
:10147800074AD36823F4E0631B041B0C000200F442
:10148800E060034343F0BF6343F40033D360704725
:1014980000ED00E010B50446054BD868C0F3022003
:1014A800FFF7C6FF01462046FFF7AEFF10BD00BF9D
:1014B80000ED00E0002807DB00F01F0240090123CF
:1014C8009340024A42F82030704700BF00E100E034
:1014D8000138B0F1807F0BD24FF0E0235861054A04
:1014E800F02182F823100020986107221A617047C2
:1014F8000120704700ED00E030B405682C6824F442
:1015080080242C60046863608368402B05D00368DE
:1015180099600368DA6030BC704703689A600368B2
:10152800D960F8E710B40368D9B210390C4AA2FBA5
:10153800014212090B4CA25CC2655F2909D923F448
:101548007F7323F0030304338365806D5DF8044BD8
:10155800704723F47F7323F003038365F5E700BF27
:10156800ABAAAAAA14370008836A826992B9012B28
:101578000AD0022B02D00BB100207047C36A13F0C7
:10158800807F28D100207047C36AB3F1C07F24D080
:1015980000207047B2F5005F09D0022B25D9032B34
:1015A80025D1C36A13F0807F23D100207047032B15
:1015B80003D8DFE803F01404140A00207047C36A54
:1015C80013F0807F0DD100207047C36AB3F1C07F4C
:1015D80009D0002070470120704701207047012082
:1015E8007047012070470120704701207047002094
:1015F800704701207047000070B50446FFF7FEFEF3
:10160800002C5BD00546022384F83530002384F88B
:1016180034302268136823F00103136023681A68C2
:1016280012F0010F0AD0FFF7E9FE431B052BF5D98D
:1016380020236365032084F8350070BD1A682049AB
:1016480011406268A0680243E068024320690243CF
:1016580060690243A0690243E0690243206A0243C9
:101668000A43616A04291ED01A602668756925F044
:101678000705636A1D43042B07D1A36A1D43E36A68
:101688001BB12046FFF770FF90B975612046FFF740
:1016980049FFE26D3F23934083600020606501238A
:1016A80084F83530C9E7E16A206B01430A43DBE778
:1016B80040236365012084F83500BEE70120BCE7BC
:1016C8003F8010F000282DD038B5054690F8350039
:1016D800C0B2022825D02A68136823F001031360DA
:1016E8002B6800241C602B685C602B689C602B684E
:1016F800DC602B681C612B6821225A612846FFF7A1
:1017080011FFEC632C646C64AC64EC642C65EA6DCA
:101718003F23934083606C6585F8354085F83440F5
:10172800204638BD0120704738B5044690F834008B
:1017380001281BD0012084F8340094F83500C0B289
:10174800012804D0002384F83430022038BD022058
:1017580084F83500002565652046FFF7CDFE226830
:10176800136843F0010313602846EFE70220EDE712
:1017780038B50446856D90F8340001282BD0012037
:1017880084F8340094F83500C0B2012804D000234E
:1017980084F83430022038BD022084F83500002057
:1017A80060652046FFF7A8FEE26D3F239340AB60DB
:1017B8002268136843F016031360236C23B1226870
:1017C800136843F0080313602268136843F00103A9
:1017D80013600020DFE70220DDE770B50446866D60
:1017E800FFF70CFE94F83530DBB2022B06D08023CD
:1017F8006365002384F83430012070BD05462268F3
:10180800136823F0160313602268536923F08003DA
:101818005361236CE3B12268136823F00803136053
:101828002268136823F00103136023681B6813F010
:10183800010F11D0FFF7E2FD431B052BF5D920233B
:101848006365032084F83500002384F83430D4E736
:10185800A36C002BDFD1E3E7E26D3F239340B36035
:10186800012384F83530002084F83400C5E790F867
:101878003530DBB2022B03D080234365012070474B
:10188800052380F835300268136823F001031360DC
:1018980000207047F0B583B0044600230193724BD3
:1018A8001D68724BA3FB0535AD0A876D3E68C26D96
:1018B80008239340334210D003681A6812F0040FCB
:1018C8000BD01A6822F004021A60C26D08239340F4
:1018D800BB60436D43F001034365E26D0123934010
:1018E800334209D02268526912F0800F04D0BB60DD
:1018F800636D43F002036365E26D04239340334252
:1019080009D02268126812F0020F04D0BB60636D20
:1019180043F004036365E26D10239340334224D0FF
:101928002268126812F0080F1FD0BB6023681A687B
:1019380012F4802F0DD01B6813F4002F04D1236CF0
:101948009BB12046984710E0A36C73B12046984796
:101958000BE01A6812F4807F03D11A6822F008029B
:101968001A60236C0BB120469847E26D2023934000
:10197800334255D02268126812F0100F50D0BB6065
:1019880094F83530DBB2052B0ED023681A6812F4B0
:10199800802F33D01B6813F4002F2AD1636C002BDF
:1019A8003ED0204698473BE02268136823F0160390
:1019B80013602268536923F080035361236CA3B139
:1019C8002268136823F008031360E26D3F239340F5
:1019D800BB60012384F83530002384F83430236D4C
:1019E800002B3FD0204698473CE0A36C002BE7D162
:1019F800EBE7E36BA3B12046984711E01A6812F4AD
:101A0800807F09D11A6822F010021A60012384F835
:101A18003530002384F83430E36B0BB12046984707
:101A2800636DFBB1636D13F0010F17D0052384F8C4
:101A380035302268136823F001031360019B0133DA
:101A48000193AB4204D823681B6813F0010FF5D14A
:101A5800012384F83530002384F83430E36C0BB16B
:101A68002046984703B0F0BD20000020B5814E1BEA
:101A780000230F2B00F2E98070B582B065E085681D
:101A88004FEA430E032404FA0EF425EA0405CC6851
:101A980004FA0EF42C438460446824EA02044A6879
:101AA800C2F300129A40224342605CE0DC0808342A
:101AB80050F8242003F00705AD004FF00F0E0EFA82
:101AC80005FE22EA0E0E0A69AA4042EA0E0240F812
:101AD80024205CE0072200E0002202FA0EF22A43EA
:101AE80002345A4D45F82420594A94686FEA0C028A
:101AF80024EA0C054E6816F4801F01D04CEA040550
:101B0800534CA560E46802EA04054E6816F4001F09
:101B180001D04CEA04054E4CE560646802EA04050D
:101B28004E6816F4003F01D04CEA0405484C656045
:101B3800246822404D6815F4803F01D04CEA040225
:101B4800434C226001330F2B7DD801229A400C6848
:101B580004EA020C32EA0404F4D14C6804F00304E9
:101B6800013C012C8BD94A6802F00302032A09D0F0
:101B7800C4685D000322AA4024EA02048A68AA40D5
:101B88002243C2604A6802F00302022A8ED0046827
:101B98004FEA430E032202FA0EF224EA02044A68CC
:101BA80002F0030202FA0EF2224302604A6812F4BB
:101BB800403FC7D000220192264A546C44F4804426
:101BC8005464526C02F480420192019A9C08A51C4C
:101BD8001E4A52F8255003F0030E4FEA8E0E0F22CC
:101BE80002FA0EF225EA02051B4A90423FF474AF4E
:101BF80002F5806290421AD002F58062904218D0B5
:101C080002F58062904216D002F58062904214D0AC
:101C180002F58062904212D002F58062904210D0A4
:101C280002F5806290423FF455AF082255E7012241
:101C380053E7022251E703224FE704224DE705222A
:101C48004BE7062249E702B070BD704700380140F3
:101C5800003C01400038024000000240036919427C
:101C680001D001207047002070470AB18161704798
:101C7800090481617047436901EA030221EA03010B
:101C880041EA0241816170477047000008B5054B81
:101C98005B69034200D108BD024B5861FFF7F4FFAE
:101CA800F9E700BF003C0140002800F0E08170B572
:101CB80082B00446036813F0010F3BD09F4B9B682A
:101CC80003F00C03042B2CD09C4B9B6803F00C03F3
:101CD800082B21D06368B3F5803F4FD0B3F5A02F10
:101CE80052D0964B1A6822F480321A601A6822F48D
:101CF80080221A606368002B50D0FFF77FFB0546EF
:101D08008E4B1B6813F4003F14D1FFF777FB401B81
:101D18006428F5D90320B1E1884B5B6813F4800F80
:101D2800D8D0864B1B6813F4003F03D06368002BA0
:101D380000F09F81236813F0020F54D07F4B9B68FB
:101D480013F00C0F3ED07D4B9B6803F00C03082B5F
:101D580033D0E368002B68D0794B01221A60FFF773
:101D68004DFB0546754B1B6813F0020F54D1FFF766
:101D780045FB401B0228F5D903207FE16F4A136811
:101D880043F480331360B5E76C4B1A6842F4802241
:101D98001A601A6842F480321A60ABE7FFF72EFB2C
:101DA8000546664B1B6813F4003FC3D0FFF726FBBC
:101DB800401B6428F5D9032060E1604B5B6813F48D
:101DC800800FC6D15D4B1B6813F0020F03D0E36888
:101DD800012B40F05081594A136823F0F803216918
:101DE80043EAC1031360236813F0080F42D0636904
:101DF8006BB3534B0122C3F8802EFFF7FFFA054659
:101E08004E4B5B6F13F0020F34D1FFF7F7FA401B0C
:101E18000228F5D9032031E1484A136823F0F80372
:101E2800216943EAC1031360DDE7454B00221A60CC
:101E3800FFF7E4FA0546414B1B6813F0020FD2D0B6
:101E4800FFF7DCFA401B0228F5D9032016E13C4BCA
:101E58000022C3F8802EFFF7D1FA0546374B5B6F97
:101E680013F0020F06D0FFF7C9FA401B0228F5D974
:101E7800032003E1236813F0040F77D02F4B1B6C6A
:101E880013F0805F33D1002301932C4B1A6C42F07E
:101E980080521A641B6C03F080530193019B012547
:101EA800284B1B6813F4807F23D0A368012B34D000
:101EB800052B38D0214B1A6F22F001021A671A6FCE
:101EC80022F004021A67A368002B3DD0FFF796FAA8
:101ED80006461A4B1B6F13F0020F46D1FFF78EFA16
:101EE800801B41F288339842F3D90320C6E00025CD
:101EF800D6E7144A136843F480731360FFF77EFA39
:101F08000646104B1B6813F4807FCED1FFF776FA94
:101F1800801B0228F5D90320B0E0084A136F43F06C
:101F280001031367CFE7054B1A6F42F004021A67E3
:101F38001A6F42F001021A67C5E700BF0038024075
:101F48000000474200700040FFF758FA0646524B1F
:101F58001B6F13F0020F08D0FFF750FA801B41F2F5
:101F680088339842F3D9032088E0EDB9A369002BA0
:101F780000F08380484A926802F00C02082A51D087
:101F8800022B17D0454B00221A66FFF737FA044692
:101F9800414B1B6813F0007F42D0FFF72FFA001B5C
:101FA8000228F5D9032069E03B4A136C23F08053DB
:101FB8001364DBE7394B00221A66FFF71FFA054660
:101FC800354B1B6813F0007F06D0FFF717FA401B4C
:101FD8000228F5D9032051E0E369226A1343626AB3
:101FE80043EA8213A26A5208013A43EA0243E26AC8
:101FF80043EA0263284A5360284B01221A66FFF716
:10200800FDF90446244B1B6813F0007F06D1FFF747
:10201800F5F9001B0228F5D903202FE000202DE058
:1020280000202BE0012B2BD01B4B5B6803F48001B5
:10203800E269914226D103F03F02216A8A4223D104
:10204800616A47F6C0721A40B2EB811F1ED103F4D1
:102058004031A26A5208013AB1EB024F18D103F09D
:102068007063E26AB3EB026F14D1002006E001202E
:102078007047012002E0012000E0002002B070BD9E
:102088000120FBE70120F9E70120F7E70120F5E748
:102098000120F3E70120F1E7003802400000474241
:1020A80008B5334B9B6803F00C03042B5BD0082B5B
:1020B8005BD12F4B5A6802F03F025B6813F4800F24
:1020C8002CD02B4B5868C0F388104FEA401CBCEB4F
:1020D800000C6EEB0E0E4FEA8E1343EA9C634FEA38
:1020E8008C11B1EB0C0163EB0E03DB0043EA517377
:1020F800C90011EB000C43F10003590200234FEA19
:102108004C2041EADC51FEF73BF8194B5B68C3F3FE
:10211800014301335B00B0FBF3F027E0144B586830
:10212800C0F388104FEA401CBCEB000C6EEB0E0E9F
:102138004FEA8E1343EA9C634FEA8C11B1EB0C0112
:1021480063EB0E03DB0043EA5173C90011EB000C8B
:1021580043F10003990200234FEA8C2041EA9C5185
:10216800FEF70EF8D1E7034800E0034808BD00BFBA
:102178000038024000127A000024F400002800F021
:102188009B8070B50D4604464F4B1B6803F0070350
:102198008B4208D2CBB24C4A1370136803F0070382
:1021A8008B4240F08B80236813F0020F17D013F096
:1021B800040F04D0454A936843F4E05393602368BE
:1021C80013F0080F04D0414A936843F460439360C6
:1021D8003E4A936823F0F003A1680B439360236899
:1021E80013F0010F32D06368012B21D09A1E012A07
:1021F80025D9364A126812F0020F61D033498A682D
:1022080022F0030213438B60FFF7F8F806462F4BC2
:102218009B6803F00C036268B3EB820F16D0FFF7DC
:10222800EDF8801B41F288339842F0D9032042E050
:10223800264A126812F4003FE0D101203BE0234A0D
:10224800126812F0007FD9D1012034E01E4B1B68C0
:1022580003F00703AB4207D9EAB21B4B1A701B689D
:1022680003F00703AB422DD1236813F0040F06D007
:10227800164A936823F4E053E1680B43936023689C
:1022880013F0080F07D0114A936823F460432169BB
:1022980043EAC1039360FFF703FF0C4B9B68C3F34A
:1022A80003130B4AD35CD8400A4B18600A4B1868D2
:1022B800FFF758F8002070BD012070470120FAE7A9
:1022C8000120F8E70120F6E7003C02400038024010
:1022D800043700082000002028000020014B18685F
:1022E800704700BF2000002008B5FFF7F7FF044B38
:1022F8009B68C3F38223034AD35CD84008BD00BF60
:1023080000380240FC36000808B5FFF7E7FF044B29
:102318009B68C3F34233034AD35CD84008BD00BF6F
:1023280000380240FC36000830B4036A23F0010389
:102338000362036A4268846924F0730C0C6844EAF7
:102348000C0423F0020C8B6843EA0C03114DA842DD
:1023580003D005F58065A84205D123F00803CD68B0
:102368002B4323F004030B4DA84203D005F58065E9
:10237800A84207D122F440724D6945EA020C8A69E5
:1023880042EA0C02426084614A684263036230BCDC
:10239800704700BF0000014030B4036A23F4807323
:1023A8000362036A4268C46924F0730C0C6844EA47
:1023B8000C0523F400738C6843EA0423114CA042F3
:1023C80003D004F58064A04206D123F40063CC68EE
:1023D80043EA042323F480630A4CA04203D004F5A3
:1023E8008064A04207D122F440524C6942EA0412A8
:1023F8008C6942EA04124260C5614A68C26303629A
:1024080030BC70470000014030B4036A23F48053A5
:102418000362036A4468C26922F4E6420D6842EA2C
:10242800052223F400538D6843EA0533094DA84279
:1024380003D005F58065A84204D124F480444D6991
:1024480044EA85144460C2614A680264036230BC8D
:10245800704700BF0000014090F83D30DBB2012B0F
:1024680032D1022380F83D300368194A934220D0C4
:10247800B3F1804F1DD0A2F57C42934219D002F5EA
:102488008062934215D002F58062934211D002F522
:10249800784293420DD002F57052934209D0A2F5CA
:1024A8009432934205D01A6842F001021A60002063
:1024B80070479A6802F00702062A07D01A6842F0A5
:1024C80001021A6000207047012070470020704701
:1024D800000001407047704770477047704710B55B
:1024E800044603681A6912F0020F11D0DA6812F074
:1024F800020F0DD06FF002021A61012303770368FF
:102508009B6913F0030F70D0FFF7E6FF00232377D2
:1025180023681A6912F0040F12D0DA6812F0040F57
:102528000ED06FF004021A610223237723689B6997
:1025380013F4407F5FD02046FFF7CEFF00232377B8
:1025480023681A6912F0080F12D0DA6812F0080F1F
:102558000ED06FF008021A61042323772368DB6921
:1025680013F0030F4ED02046FFF7B6FF0023237762
:1025780023681A6912F0100F12D0DA6812F0100FDF
:102588000ED06FF010021A61082323772368DB69E5
:1025980013F4407F3DD02046FFF79EFF00232377AA
:1025A80023681A6912F0010F03D0DA6812F0010FDC
:1025B80036D123681A6912F0800F03D0DA6812F056
:1025C800800F34D123681A6912F0400F03D0DA68FB
:1025D80012F0400F32D123681A6912F0200F03D08D
:1025E800DA6812F0200F30D110BDFFF774FF2046D3
:1025F800FFF773FF8AE72046FFF76DFF2046FFF7D6
:102608006CFF9BE72046FFF766FF2046FFF765FF54
:10261800ACE72046FFF75FFF2046FFF75EFFBDE708
:102628006FF001021A612046FEF7F8FAC1E76FF071
:1026380080021A61204600F04AFAC3E76FF04002B0
:102648001A612046FFF74AFFC5E76FF020021A61BA
:10265800204600F03BFAC7E70368304A904212D0A0
:10266800B0F1804F0FD0A2F57C4290420BD002F51A
:102678008062904207D002F58062904203D002F552
:102688007842904203D123F070034A681343234AE7
:1026980090422AD0B0F1804F27D0A2F57C429042D8
:1026A80023D002F5806290421FD002F580629042EA
:1026B8001BD002F57842904217D002F57052904232
:1026C80013D002F5806290420FD002F580629042EA
:1026D8000BD0A2F59832904207D002F58062904262
:1026E80003D002F58062904203D123F44073CA6894
:1026F800134323F080034A69134303608B68C36262
:102708000B688362054B984203D003F580639842B7
:1027180001D10B6903630123436170470000014045
:1027280040B310B5044690F83D30F3B1022384F865
:102738003D30214651F8040BFFF78EFF012384F842
:10274800463084F83E3084F83F3084F8403084F8CE
:10275800413084F8423084F8433084F8443084F8B7
:10276800453084F83D30002010BD80F83C30FEF73D
:1027780079FDDBE70120704740B310B5044690F8B7
:102788003D30F3B1022384F83D30214651F8040B63
:10279800FFF762FF012384F8463084F83E3084F85E
:1027A8003F3084F8403084F8413084F8423084F86F
:1027B800433084F8443084F8453084F83D300020B4
:1027C80010BD80F83C30FFF785FEDBE7012070473D
:1027D80030B4036A23F010030362036A4468826911
:1027E80022F4E6420D6842EA052223F020038D68B0
:1027F80043EA0513114DA84203D005F58065A842A8
:1028080006D123F08003CD6843EA051323F0400383
:102818000A4DA84203D005F58065A84207D124F4E3
:1028280040644D6944EA85048D6944EA850444603E
:1028380082614A688263036230BC704700000140CD
:1028480038B590F83C30012B66D004460D4601237C
:1028580080F83C300C2A5AD8DFE802F00759595959
:102868001B5959593059595944000068FFF75CFD04
:102878002268936943F0080393612268936923F0FF
:10288800040393612268936929690B4393610020CB
:102898003EE00068FFF79CFF2268936943F40063F9
:1028A80093612268936923F4806393612268936932
:1028B800296943EA01239361002029E00068FFF7B2
:1028C8006BFD2268D36943F00803D3612268D3699A
:1028D80023F00403D3612268D36929690B43D361C8
:1028E800002015E00068FFF78FFD2268D36943F4E4
:1028F8000063D3612268D36923F48063D3612268BB
:10290800D369296943EA0123D361002000E001204B
:10291800002384F83C3038BD0220FCE701F01F0199
:102928004FF0010C0CFA01FC036A23EA0C03036262
:10293800036A8A40134303627047000010B50446D7
:102948000846002942D194F83E30DBB2013B18BF5B
:102958000123002B6ED1002851D1022384F83E3088
:10296800012201462068FFF7D9FF2368334A9342C2
:1029780003D002F58062934203D15A6C42F40042BC
:102988005A6423682D4A934249D0B3F1804F46D008
:10299800A2F57C42934242D002F5806293423ED037
:1029A80002F5806293423AD002F57842934236D0DB
:1029B80002F57052934232D0A2F5943293422ED04F
:1029C8001A6842F001021A60002032E0042908D097
:1029D80008290DD094F84130DBB2013B18BF012320
:1029E800B7E794F83F30DBB2013B18BF0123B0E7EB
:1029F80094F84030DBB2013B18BF0123A9E7042853
:102A080005D0082807D0022384F84130A8E702231C
:102A180084F83F30A4E7022384F84030A0E79A689E
:102A280002F00702062A07D01A6842F001021A606B
:102A3800002010BD0120FCE70020FAE7000001405B
:102A480090F83C20012A3DD010B40346012280F8BA
:102A58003C20022280F83D2002685068946820F0EB
:102A6800700C086840EA0C0050601A6816488242E8
:102A78001AD0B2F1804F17D0A0F57C40824213D013
:102A880000F5806082420FD000F5806082420BD052
:102A980000F57840824207D000F57050824203D09A
:102AA800A0F59430824204D124F08004496821437F
:102AB8009160012283F83D20002083F83C005DF8F6
:102AC800044B704702207047000001407047704770
:102AD800026802F10C0353E8003F23F490730C32B0
:102AE80042E800310029F3D1026802F1140353E8E7
:102AF800003F23F00103143242E800310029F3D1EA
:102B0800036B012B05D0202380F83E30002303639C
:102B18007047026802F10C0353E8003F23F01003EA
:102B28000C3242E800310029F3D1ECE790F83D304F
:102B3800DBB2212B01D0022070478368B3F5805F98
:102B480017D0036A5A1C02621A7803685A60C38C49
:102B58009BB2013B9BB2C3844BB90268D36823F094
:102B68008003D3600268D36843F04003D360002039
:102B780070470369002BE4D1036A1B880268C3F31A
:102B880008035360036A02330362E0E710B50446A2
:102B98000268136923F44053C1680B4313618368C7
:102BA80002691A4343691A43C3691A430168CB6827
:102BB80023F4164323F00C031343CB6002685369D4
:102BC80023F4407381690B4353610368314A93428C
:102BD80006D002F58062934202D0FFF785FB01E040
:102BE800FFF792FBE369B3F5004F29D000210318E2
:102BF80049411B1841F10001C90041EA5371DB004A
:102C0800181863684FEA83024FEA937341F1000191
:102C1800FDF7B6FA204AA2FB00314909642303FBF9
:102C280011031B013233A2FB03235B0903F0F002FB
:102C380002EB011203F00F03216813448B6010BDEF
:102C48000023021843EB0301121841F10001C900E7
:102C580041EA5271D200101841F1000162689218DD
:102C68005B41FDF78DFA0C4AA2FB00314909642348
:102C780003FB1103DB003233A2FB03235B095A0079
:102C880002F4F87202EB011203F0070321681344FF
:102C98008B60D4E7001001401F85EB512DE9F84304
:102CA80005460F4616469946DDF820802B681C68B5
:102CB80037EA04040CBF01240024B4422DD1B8F132
:102CC800FF3FF3D0B8F1000F05D0FEF797FBA0EB5C
:102CD80009004045EAD92A6802F10C0353E8003F8D
:102CE80023F4D0730C3242E800310029F3D12A686A
:102CF80002F1140353E8003F23F00103143242E8C1
:102D080000310029F3D1202385F83D3085F83E3085
:102D1800002385F83C30032000E00020BDE8F8835C
:102D280058B310B5044690F83D300BB3242384F80B
:102D38003D302268D36823F40053D3602046FFF760
:102D480025FF2268136923F49043136122685369AD
:102D580023F02A0353612268D36843F40053D360F5
:102D680000202064202384F83D3084F83E3010BDD4
:102D780080F83C30FEF796FAD8E7012070472DE935
:102D8800F04182B01E4690F83D30DBB2202B54D182
:102D980004460D469046002953D0002A53D090F897
:102DA8003C30012B51D0012380F83C3000230364D0
:102DB800212380F83D30FEF721FB0746A4F8248044
:102DC800A4F82680A368B3F5805F05D04FF000080B
:102DD800002384F83C3012E0236913B14FF0000857
:102DE800F6E7A8460025F3E738F8023B2268C3F364
:102DF80008035360E28C92B2013A92B2E284E38C07
:102E08009BB273B100963B46002280212046FFF713
:102E180045FFE0B9002DE7D015F8012B23685A606B
:102E2800E8E700963B46002240212046FFF736FFA0
:102E380078B9202384F83D3000E0022002B0BDE8D4
:102E4800F0810120FAE70120F8E70220F6E70320E5
:102E5800F4E70320F2E7704708B50168CA6822F072
:102E68004002CA60202280F83D20FFF7F4FF0020CE
:102E780008BD704708B5806B0023C385C384FFF77E
:102E8800F8FF08BD704790F83E30DBB2222B67D1BF
:102E98008368B3F5805F4DD0826AB3F5805F04D054
:102EA800002B54D10369002B51D103685B68137060
:102EB800836A01338362C38D9BB2013B9BB2C38596
:102EC800002B4FD100B583B00268D36823F02003EC
:102ED800D3600268D36823F48073D36002685369AF
:102EE80023F001035361202380F83E30036B012B4C
:102EF80033D100230363026802F10C0353E8003F57
:102F080023F010030C3242E800310029F3D10368A2
:102F18001A6812F0100F06D0002201921A68019266
:102F28005B680193019B818DFFF7ACFF002003B024
:102F38005DF804FB0269002AAED1826A03685B6807
:102F4800C3F308031380836A02338362B3E7036819
:102F58005B6803F07F031370AAE7FDF731FFE5E72D
:102F6800022070470020704710B582B004460268FE
:102F78001368D068516913F00F0F09D113F0200FAF
:102F88000CD010F0200F09D02046FFF77CFF16E088
:102F980011F0010115D110F4907F12D1216B012994
:102FA80079D013F0800F03D010F0800F40F010811B
:102FB80013F0400F03D010F0400F40F00D8102B025
:102FC80010BD13F0010F06D010F4807F03D0226CDF
:102FD80042F00102226413F0040F04D019B1226CEC
:102FE80042F00202226413F0020F04D019B1226CDD
:102FF80042F00402226413F0080F07D010F0200FEB
:1030080000D119B1226C42F008022264226C002A15
:10301800D5D013F0200F02D010F0200F29D123684B
:103028005B6903F04003226C12F0080F00D163B310
:103038002046FFF74DFD23685B6913F0400F20D051
:10304800226802F1140353E8003F23F040031432CE
:1030580042E800310029F3D1A36B73B1604A1A65C5
:10306800A06BFEF704FC0028A9D0A06B036D98475D
:10307800A5E72046FFF707FFD1E72046FFF7F9FE4F
:103088009DE72046FFF7F5FE99E72046FFF7F1FE9A
:103098000023236493E713F0100F82D010F0100F71
:1030A8003FF47FAF002301931368019353680193A2
:1030B800019B536913F0400F50D0A26B13685B68F3
:1030C8009BB2002B3FF47BAFA18D99427FF677AF7F
:1030D800E385D369B3F5807F37D0226802F10C030A
:1030E80053E8003F23F480730C3242E80031002992
:1030F800F3D1226802F1140353E8003F23F00103DF
:10310800143242E800310029F3D1226802F1140395
:1031180053E8003F23F04003143242E8003100290D
:10312800F3D1202384F83E3000232363226802F180
:103138000C0353E8003F23F010030C3242E800313F
:103148000029F3D1A06BFEF748FBA18DE38D9BB25C
:10315800C91A89B22046FFF795FE30E7A18DE38DA5
:103168009BB2C91A89B2E38D9BB2002B3FF427AFFB
:1031780000293FF424AF226802F10C0353E8003F12
:1031880023F490730C3242E800300028F3D122680F
:1031980002F1140353E8003F23F00103143242E81C
:1031A80000300028F3D1202384F83E300023236325
:1031B800226802F10C0353E8003F23F010030C329D
:1031C80042E800300028F3D12046FFF75BFEF6E620
:1031D8002046FFF7ABFCF2E62046FFF73DFEEEE6A1
:1031E8007D2E000881628285C28500230364222225
:1031F80080F83E2080F83C30036923B10268D36828
:1032080043F48073D3600268536943F00103536148
:103218000268D36843F02003D3600020704708B5E4
:1032280090F83E30DBB2202B0DD171B17AB190F815
:103238003C30012B0DD0012380F83C300023036380
:10324800FFF7D0FF00E0022008BD0120FCE70120C5
:10325800FAE70220F8E70000DFF834D00D480E49FD
:103268000E4A002302E0D458C4500433C4188C42D8
:10327800F9D30B4A0B4C002301E013600432A2423D
:10328800FBD3FEF765F800F019F8FDF7DFFE70478D
:1032980000000220000000202C0000202C3700082D
:1032A8002C0000202C1C0020FEE702440346934219
:1032B80000D1704703F8011BF9E7000070B50D4D08
:1032C8000D4C641BA4100026A64209D10B4D0C4CD2
:1032D80000F076F9641BA4100026A64205D170BD43
:1032E80055F8043B98470136EEE755F8043B9847F4
:1032F8000136F2E72437000824370008243700088D
:10330800283700082DE9F047089D0C46002B4ED1C0
:1033180094468C458646B2FA82F262D94AB1C2F125
:103328002003914020FA03F30CFA02FC194300FA37
:1033380002FE4FEA1C471FFA8CF6B1FBF7F44FEA7E
:103348001E4307FB141143EA014304FB06F19942AB
:103358000AD91CEB030304F1FF3080F01281994273
:1033680040F20F81023C6344591A1FFA8EF3B1FBF5
:10337800F7F007FB101143EA014300FB06F69E42F3
:103388000AD91CEB030300F1FF3180F0FC809E4258
:1033980040F2F980634402389B1B40EA0440002154
:1033A8001DB1D3400022C5E90032BDE8F0878B4249
:1033B80005D90DB1C5E9000100210846F5E7B3FAC2
:1033C80083F1002946D1A34202D39042C0F0F08095
:1033D800861A64EB03030120002DE6D0C5E90063DB
:1033E800E3E7002A40F09080A1EB0C044FEA1C4868
:1033F8001FFA8CF70121B4FBF8F64FEA1E4308FBCD
:10340800164443EA044307FB06F0984208D91CEB2C
:10341800030306F1FF3402D2984200F2CD8026461B
:103428001C1A1FFA8EF3B4FBF8F008FB104443EAA9
:10343800044300FB07F79F4208D91CEB030300F184
:10344800FF3402D29F4200F2B0802046DB1B40EAE4
:103458000640A5E7C1F120068B4022FA06F71F4374
:1034680020FA06FC04FA01F343EA0C03F44000FADC
:1034780001F8380C4FEA1349B4FBF0FE1FFA87FC39
:1034880000FB1E4449EA04440EFB0CF9A14502FA6C
:1034980001F20AD93C190EF1FF3A80F08480A14567
:1034A80040F28180AEF1020E3C44A4EB09041FFAFD
:1034B80083F9B4FBF0F300FB134449EA044403FB2B
:1034C8000CFCA44507D93C1903F1FF3067D2A44589
:1034D80065D9023B3C4443EA0E40A0FB0293A4EBAF
:1034E8000C049C42CE469C4651D34ED055B1B8EB05
:1034F8000E0364EB0C0404FA06F6CB401E43CC40E2
:10350800C5E90064002150E7C2F1200320FA03F165
:103518000CFA02FC24FA03F394400C434FEA1C48CB
:1035280000FA02FE1FFA8CF7B3FBF8F008FB103123
:10353800230C43EA014300FB07F1994208D91CEB2D
:10354800030300F1FF362CD299422AD9023863448A
:103558005B1AA4B2B3FBF8F108FB113344EA034445
:1035680001FB07F3A34208D91CEB040401F1FF3661
:1035780013D2A34211D902396444E41A41EA004142
:1035880039E70446F0E6084606E7C845AED2B9EB87
:10359800020E63EB070C0138A8E73146EDE7034656
:1035A80099E73046D4E7D6467FE7634402384DE7CB
:1035B8000646234608460FE7023E634430E700BF4D
:1035C800F8B500BFF8BC08BC9E467047F8B500BF08
:0835D800F8BC08BC9E467047D8
:1035E00000000000000000000000000000000000DB
:1035F00000000000000000000000000001010101C7
:1036000001010101010101010102020202020202A3
:103610000203030303030303040404040405050570
:103620000506060606070707070808080909090A24
:103630000A0A0B0B0B0C0C0D0D0D0E0E0F0F1010BC
:103640001111121213131414151516161718181930
:10365000191A1B1B1C1D1D1E1F2020212223232481
:103660002526272728292A2B2C2D2E2F30313232A0
:103670003334363738393A3B3C3D3E3F4042434491
:10368000454648494A4B4D4E4F515253555657594E
:103690005A5C5D5F606263656668696B6D6E7072CF
:1036A000737577787A7C7E7F81838587898A8C8E13
:1036B00090929496989A9C9EA0A2A4A7A9ABADAF15
:1036C000B1B4B6B8BABDBFC1C4C6C8CBCDD0D2D5CF
:1036D000D7DADCDFE1E4E7E9ECEFF1F4F7F9FCFF3E
:1036E00048454C4C4F00000054696D65203A20005D
:1036F0005265636965766564210000000000000082
:1037000001020304000000000000000001020304A5
:0C37100006070809000610160006101637
:08371C00F0FBFF7F010000003B
:04372400E1010008B7
:04372800BD010008D7
:10372C0000000F000F000000FF000000FF00000071
:10373C00FFFFFFFFFFFF00FF00FF00FFFF00000087
:0C374C000024F400010000001000000048
:04000005080032615C
:00000001FF
